:100000008A0145280000871007158611080087140B
:1000100007118615080081000B1164000B1D0D28C7
:100020000800FF300B2863300B286430A200132037
:10003000A20B17280800851E1F28043086061120F1
:10004000861F0800072013200328072064000618D5
:10005000262815200328061B8614061F8610080074
:1000600086018701063083169F00FF308500F1303E
:100070008600F93087000530810083120328861B33
:100080001B20061825202B203F28333084003020E9
:100090003F280000000000000000000000000000F9
:04400E00E23FFF3F4F
:00000001FF
