:100000008A01BB2800000000F63080073A30031850
:10001000073E800708000008001E093E0F398000D7
:1000200008002408031D1A28A70122088A00193095
:10003000F5281128A4012130840380000C1A2628F9
:10004000A70122088A002530F5281E280008840A06
:10005000990023088403800084038000800E0F3001
:10006000800504200C1A3A28A70122088A0039309A
:10007000F52832280008840A99000F3080050420F2
:100080000C1A4828A70122088A004730F528402882
:100090000008840A99000D30840380000C1A562849
:1000A000A70122088A005530F5284E280008840A46
:1000B0009900112823088403800005088403800028
:1000C000A300840A0006840A0038031DA40AB201B2
:1000D00022088A006C30EC285A2801308706A40ACE
:1000E0009830BB00BE0122088A007730E3280B1D40
:1000F00072280B11BB0B72286D288C1A8528CB0136
:1001000022088A008430DA287D281A0884038000B7
:10011000213A031D8F28840A0130C7007D280B2057
:100120004708013A031D9928000E840AC800C70A2F
:10013000A4284708023A031DA32848080004840A9B
:100140008600C701A428840A7D28063083169F00F4
:10015000FF3085008601831286019030980024309C
:100160008316980019309900BE308700073081004F
:100170008312C7010800643084005430C9007D3008
:10018000CA00CB014730BC006D30BD00BE013B3022
:10019000B0005A30B100B2013030A5001130A600D5
:1001A000A701A520A2016400490884004B088A0029
:1001B0004A088200CA000408C9003C0884003E08BE
:1001C0008A003D088200BD000408BC00300884009D
:1001D00032088A0031088200B1000408B000250806
:1001E000840027088A0026088200A6000408A500CB
:1001F000D328000000000000000000000000000004
:04400E00E23FFF3F4F
:00000001FF
