:100000008A01AA280000F63080073A300318073E1C
:10001000800708000008001E093E0F398000080014
:100020002308031D1728A6011630E3281028A30172
:100030002130840380000C1A2128A6012030E328F7
:100040001B280008840A9900220884038000840386
:100050008000800E0F30800503200C1A3328A60183
:100060003230E3282D280008840A99000F308005DB
:1000700003200C1A3F28A6013E30E3283928000847
:10008000840A99000D30840380000C1A4B28A601C5
:100090004A30E32845280008840A990010282208DD
:1000A00084038000050884038000A200840A0006FF
:1000B000840A0038031DA30AB1015F30DA284F28F3
:1000C00001308706A30A9830BA00BD016830D128F4
:1000D0000B1D65280B11BA0B652860288C1A742833
:1000E000CA017330C8286E281A0884038000213A98
:1000F000031D7E28840A0130C6006E280A204608A7
:10010000013A031D8828000E840AC700C60A9328F6
:100110004608023A031D922847080004840A860014
:10012000C6019328840A6E28063083169F00FF308C
:100130008500860183128601903098002430831652
:10014000980019309900BE30870007308100831273
:10015000C6010800633084005330C8006E30C90007
:10016000CA014630BB006030BC00BD013A30AF0070
:100170004F30B000B1012F30A4001030A500A6010F
:1001800094206400480884004A088A0049088200D4
:10019000C9000408C8003B0884003D088A003C08E8
:1001A0008200BC000408BB002F08840031088A00CC
:1001B00030088200B0000408AF002408840026083C
:1001C0008A0025088200A5000408A400C1280000B8
:04400E00E23FFF3F4F
:00000001FF
