:100000008A012B2900000408A000000884000008D1
:10001000A100200884002108800008000008840A4C
:10002000A0000008840AA1000408A200200884009F
:10003000210880002208840008002530800708007D
:100040001D2003280008A4001D200E280008840A93
:10005000810708000008840AAE0008002E08840307
:10006000800022280130A3000800801F3928840A5C
:100070003228001B2E282A281A08840380003520E5
:100080000B1D40280B1108008C1A3C2840282F1605
:1000900008002F120800AF160800AF120800013048
:1000A000AF0608000430AF0608002F0D31053006FA
:1000B0000A392F04860008003208031D49284F2002
:1000C000B20A0800061B5C28B20108003308031DB1
:1000D0004D285220B30A0800861B6628B301080089
:1000E00062206C286400262044287220B001702011
:1000F000552072200A30B00070205528AD01EE3036
:10010000840380008403800075280130AD006430D2
:10011000840380008403800075281030B5007E20A1
:10012000B50B8F28B4010800B60D03187E2885286A
:100130000008B600840AB4069420942094209420E9
:1001400094209420942094283408840380009828D4
:10015000840380019828FF308403800098288D2034
:10016000AB20A820AB207E288D20A820A820A82086
:100170007E288D200008840380009820202098206D
:10018000A4207E2887140800871008000230870604
:10019000080007150800071108000430870608004A
:1001A0008501063083169F00F03085008312080019
:1001B0008601C030831686008312080087019011E3
:1001C000901099308316870083120800D020D82021
:1001D000DE2803308316810083120800A40A07304A
:1001E000A4050800B420B420B420B4200830B7001F
:1001F0006030840380003708840380002220B70B1E
:10020000F828A4010800230803190829A301F228EB
:1002100008000321240884038000EE20B920092966
:100220000430831698008312903098008130831632
:100230009900831208003030AF000430B100B201E1
:10024000B3010130A3000800C220C928E620102114
:10025000E9201B2124294830840026210929000097
:04400E00F639FF3F41
:00000001FF
