:100000008A012C29000000000408A00000088400D8
:100010000008A100200884002108800008000008D2
:10002000840AA0000008840AA1000408A200200895
:100030008400210880002208840008002530800701
:1000400008001E2004280008A4001E200F28000815
:10005000840A810708000008840AAE0008002E0800
:100060008403800023280130A3000800801F3A2861
:10007000840A3328001B2F282B281A0884038000A9
:1000800036200B1D41280B1108008C1A3D284128F1
:100090002F1608002F120800AF160800AF12080034
:1000A0000130AF0608000430AF0608002F0D3105FF
:1000B00030060A392F04860008003208031D4A283A
:1000C0005020B20A0800061B5D28B2010800330860
:1000D000031D4E285320B30A0800861B6728B3016E
:1000E000080063206D286400272045287320B00194
:1000F0007120562073200A30B00071205628AD01BF
:10010000EE30840380008403800076280130AD0047
:100110006430840380008403800076281030B500AA
:100120007F20B50B9028B4010800B60D03187F2876
:1001300086280008B600840AB406952095209520EC
:1001400095209520952095209528340884038000DB
:100150009928840380019928FF308403800099281E
:100160008E20AC20A920AC207F288E20A920A92099
:10017000A9207F288E200008840380009920212058
:100180009920A5207F2887140800871008000230D6
:1001900087060800071508000711080004308706C5
:1001A00008008501063083169F00F0308500831219
:1001B00008008601C030831686008312080087017C
:1001C0009011901099308316870083120800D12077
:1001D000D920DF2803308316810083120800A40A87
:1001E0000730A4050800B520B520B520B52008309B
:1001F000B700603084038000370884038000232028
:10020000B70BF928A4010800230803190929A30141
:10021000F32808000421240884038000EF20BA207A
:100220000A29043083169800831290309800813098
:1002300083169900831208003030AF000430B100FB
:10024000B201B3010130A3000800C320CA28E7208F
:100250001121EA201C2125294830840027210A2960
:04400E00F639FF3F41
:00000001FF
