:1000000008308A008E290000FF00030E8301A20041
:100010000A08A3008A01F0290000A50A250B0800A0
:100020000B08A4008B130800A50B0800A41B8B175A
:10003000080003178D0083168C130C1483120C0810
:100040000313840380000800831603178C130C1518
:10005000031383120D205530831603178D00AA3029
:100060008D008C14031383121420831603170C11B4
:10007000031383120800831603178C183D280313FB
:10008000831208000008840A03178D000313000878
:10009000840A03178C00031324203B28F6308007C2
:1000A0003A300318073E800708000008001E093E8A
:1000B0000F3980000800831603178C170C140000FA
:1000C0000000031383120800831603178C170C1506
:1000D0008B1355308D00AA308D008C140000000069
:1000E0008B170C11031383120800261C7F28A6010E
:1000F00003170C0803137F39840380000800A60A45
:100100005B2003170E080313840380000310800D87
:1001100003170C0803138039031D001403178D0AFD
:100120000313031D962803178F0A03130800863054
:10013000A800A80B992808000E30A800C830A90014
:10014000A90BA028A80B9E280800C830A800FA30E8
:10015000A900A90BA928A80BA7280800871400004C
:100160000000000087100800AB018019AB150019D2
:100170002B1680182B150018AB16840AC330850582
:100180002B088504AE28000884038000800E0F3001
:100190008005B42000000000B4209728AC0A871521
:1001A000C32087110800752000080319D928CE2024
:1001B000D328840A0800AC01013084038000C320E6
:1001C0009C28000884038000800E0F3080054E209C
:1001D000CE200F3080054E20CE282C08103A03196F
:1001E000F628203084038000CE20ED280800AC01E2
:1001F000803084038000C328AC01C03084038000B9
:10020000C328A520033084038000B420A520033038
:1002100084038000B4209720033084038000B4203E
:100220009720023084038000B42097202830840374
:100230008000C320083084038000C320DB20063008
:1002400084038000C3200F3084038000C328271458
:10025000FC2033292010E1267537EC302010EF36D2
:10026000653220100000013003178F002A308D0006
:100270000313A601D3282710FC2047294110F43A84
:10028000ED37F430E3346D10E437A0320000013074
:1002900003178F003E308D000313A601D3280C1ED8
:1002A0004F29A71C5529071E532999000800203003
:1002B0004F290D304F210A304F29752000080319AE
:1002C00065290008840A4F215D29840A08007520E9
:1002D000000803196F290008840A4F216729840A3E
:1002E0005929A71887168C1E73291A0884038000C1
:1002F000981C7C2918121816A7188712271C0800AA
:1003000000084F2971215520800EF03080057121A1
:1003100055200008840A8004080000088403800037
:10032000800E0F3080054E200008840A4F210F30C8
:1003300080054E200008840A4F2986100615851076
:10034000080086140611851408002D14A129AD1487
:10035000A129AF002F088107640008006430A92993
:10036000EE30A929B60A3608013A031DBE29FF302E
:10037000B300FC30B4000F30B50008003608023A74
:10038000031DC829FF30B300B4010930B5000800CF
:100390003608033A031DD129B301B4010930B50071
:1003A0000800B601FF30B3008030B4000930B5005A
:1003B0000800271DDE29B601B221E1290130B50070
:1003C000AF0108003608031DB22932080319D929E4
:1003D0003008B3003108B4003208B500B20108009B
:1003E0000B11061EA5212F080319FB2906102F0843
:1003F0008107AF01062A0614B40DB30D031C022AAF
:10040000B021032AAE21B5030319E22123088A0093
:10041000220E8300FF0E7F0E090000088403800077
:100420008D2157215D213A304F2157210008840A40
:1004300019208D215929592184038001312A7527DA
:10044000E236F2326F102033693AE536A0396F3A5E
:100450007210F032E132203AA030EF31ED36EE305A
:100460000032023003178F001F308D000313A601E6
:100470000D220130840380004F2AE523653761395E
:10048000653A69106C32A0326138EB31F432A03930
:100490006414E632F5307436201DA91800000230CD
:1004A00003178F003D308D000313A6010D2202308B
:1004B000840380006F2AF32AA03261346439E13B5F
:1004C000653966106F36A03BEF3174376F392036CF
:1004D0006414E632F5307436201D2918000002300D
:1004E00003178F005B308D000313A6010D2203302C
:1004F000840380008D2A652B6239F337A032EF36F2
:1005000065326110203A6539E539203A6414E632E3
:10051000F5307436201DA9180000023003178F0033
:100520007B308D000313A6010D2A03308403800065
:100530008403800142200130840380000130840361
:100540008000422084038001023084038000422026
:100550000130840380000330840380004220273070
:10056000840380000430840380004220053084032B
:1005700080000530840380004228013019200008E3
:10058000840A00380319C62A2715C72A2711023002
:1005900019200008840A00380319D02AA714D12A88
:1005A000A710A71C87160800043019202730000662
:1005B000840A0038031DE42A05301920053000069E
:1005C000840A0038031908005921012B61212032C7
:1005D000EF316637E734F23AF430EF3420376132E6
:1005E000613A20166539653B7439EE34A0336F3AB1
:1005F0006610E3306F3A79396410E632F5307436BC
:100600008039023003178F00E6308D000313A601F6
:100610006721952AA71D132B3208031D0C2BFC30D4
:10062000B0000630B2003208031D132BB701FF30B3
:10063000B000FC30B1000F30B20008000008B7066F
:10064000840AB0000930B200080084038000320838
:10065000031D272BB1011E2B3208031D2C2BB117B4
:100660001E2B3708840380002C2B0A233808BE0079
:1006700039082523BE030319312B3A082523BE036D
:100680000319312B3B082523BE030319312B3C08EA
:100690002523BE030319312B3D082523312BBF0031
:1006A0003523BF0B502B0800030119200008840AD2
:1006B0004F2B0A30BF00A520BF0B5B2B0800023078
:1006C000B800B901BA0108005F23542BA7155923BC
:1006D0005F2303304F2B5F2306304F23A711592B85
:1006E0000230B8000008840ABA0078300004840A96
:1006F000B90005304F2B2718572121304F212718DB
:10070000572908002718572182210008840A080069
:1007100082210008B800840ABE008223B900BE030B
:10072000031908008223BA00BE03031908008223BC
:10073000BB00BE03031908008223BC00BE030319DB
:1007400008008223BD000800AB2B79377010E3301E
:10075000E535203A0000033003178F00A5308D00E7
:100760000313A60127185D2188237B23542BC62B56
:100770006F39F233ED30E936673728106932653961
:10078000F431A0146138EB31F43200100330031758
:100790008F00B8308D000313A60127185D21822138
:1007A00082212718572182217B2366230330B8003A
:1007B0000008840ABB000008840ABA007C300004E8
:1007C000840AB90005304F236B2BF42B6F39F233B9
:1007D000ED30E936673728106138E533293270107B
:1007E000E330E535203A0000033003178F00E63090
:1007F0008D000313A60127185D2182212718572198
:1008000082217B236623013084038000053084032A
:10081000800070236B23662370236B2B1B2C6F3A95
:100820002038EE32E93365376910ED36E432E134D1
:10083000653A79360010043003178F000F308D00B1
:100840000313A60127185D210230B800F720ED2020
:10085000F720312C53106F3A2038EE32E9336537E8
:10086000001D043003178F002A308D000313A601EA
:10087000D3208221000884038000E1200008840A3C
:10088000B9004130BA0054237B2320308403800018
:10089000CE2880030310800C031800164230800716
:1008A00008000008031D492C4030800008005C2C23
:1008B000F237E13B64390010043003178F005830E1
:1008C0008D000313A60127185D210230B800F72020
:1008D000ED20F7206E2CEE22BA330000043003170F
:1008E0008F006B308D000313A601D32082210008F6
:1008F00084038000E1200008840AB900842C53108E
:100900006538E4322B1D0000043003178F007F3060
:100910008D000313A601D320271857218221000838
:1009200084038000E120512480160008840ABA0064
:100930007B23542BA02CE330F735F230203200001B
:10094000043003178F009B308D000313A601271876
:100950005D210230B800F720ED20F720B22CEE2206
:10096000BA330000043003178F00AF308D0003133B
:10097000A601D3208221000884038000E120000822
:10098000840AB900C82C53106538E4322D1D0000CC
:10099000043003178F00C3308D000313A601D3204A
:1009A000271857218221000884038000E120512468
:1009B0000008840ABA007B23542BE72CEE376933F6
:1009C000F5336139693AEE377310F43200100430B0
:1009D00003178F00DE308D000313A60127185D2159
:1009E00082212718572182217B230008840A0006D0
:1009F00080060006840380004220BD2A082DEE37C1
:100A00006933F5336139693AEE376710F432001013
:100A1000043003178F00FF308D000313A601271841
:100A20005D2182217B230008840A19208D296423FB
:100A3000F720232DED24E5366932F430A032652904
:100A4000E539213A0000053003178F001A308D0078
:100A50000313A601D320352DF332F4326910ED369D
:100A6000E432E134653A79360000053003178F002F
:100A70002C308D000313A60127185D217B2B482DF8
:100A8000653B6239F337A032EF3665326F100037BD
:100A9000053003178F0040308D000313A6015D2140
:100AA00027217B2B3B217B2B602DEC322038EE372E
:100AB0006310EE376933F5336139693AEE37000078
:100AC000053003178F0055308D000313A60127183A
:100AD0005D217B231B2A732D4322A0214928A021BD
:100AE0002E18B3190019053003178F006C308D00D4
:100AF0000313A6010800842DE3306F3A793964109E
:100B0000E632F53074368039053003178F007C30BB
:100B10008D000313A60127185D217B23952AA121AF
:100B20009A2DF334E23065364410C3216F10F43A45
:100B30007538003A053003178F0091308D0003138C
:100B4000A60127185D217B2BAE2D61376C31A032B9
:100B50004322A021F537703AF43A0000053003171C
:100B60008F00A5308D000313A60127185D217B237C
:100B70009D297B2359216B256721DA2D20336F3680
:100B8000EF3173106538E43220102010201020104F
:100B900020102010EF26653B6C10E337A037EE34B1
:100BA0006610F237E13B64396410F234E332693A9B
:100BB000EE370000053003178F00BE308D000313A1
:100BC000A6016721FF2D20316F36EF317310653894
:100BD000E432201020102010201020102010EF26CA
:100BE000653B6C10E337A037EE346210E330F73525
:100BF000F230203269326539F431EF340037053094
:100C000003178F00E3308D000313A60167211C2E0C
:100C1000A0396F36EF312010201020102010201046
:100C20002010201020102010ED22F232E53363371F
:100C3000A03CF439F0370000063003178F0008306D
:100C40008D000313A6016721392E203920102010B2
:100C50002010201020102010201020102010201014
:100C60002010ED22F232E5336337A03C6539E539D7
:100C7000003A063003178F0025308D000313A601BC
:100C800067215C2EA0316E3720102010201020101C
:100C9000201020102010201020102010E523203AD2
:100CA000EF316637E734F23AF430EF342037613809
:100CB0006139E536653A0039063003178F00423056
:100CC0008D000313A60167217F2EA0216E377610B9
:100CD000203B201020102010201020102010201069
:100CE0002010E529203AEF316637E734F23AF43044
:100CF000EF34203761386139E536653A003906301E
:100D000003178F0065308D000313A60167219F2E06
:100D1000203B201020102010201020102010201028
:100D20002010201020102010752A6E397610F23213
:100D30006F31E5396D10E437A032EE370000063030
:100D400003178F0088308D000313A6016721BF2E83
:100D5000202B2010201020102010201020102010F8
:100D60002010201020102010752A6E397610F232D3
:100D70006F31E5396D10E437A032E63700330630C5
:100D800003178F00A8308D000313A6016721E12E01
:100D9000A03065366737683A7810203CF93C7A1005
:100DA000203D2E1720172010E52964376110793770
:100DB0007610EC30E4344410C3217010E330E53594
:100DC000003A063003178F00C8308D000313A601C8
:100DD0006721072F20342010201020102010201011
:100DE0002010201020102010201020106926F43927
:100DF0006F102033EF316637E734F23AF430EF34D6
:100E0000203761386139E536653A733900000630BC
:100E100003178F00EA308D000313A6016721252FE9
:100E2000202320102010201020102010201020102F
:100E300020102010201020106123F431F237A03C44
:100E400065326133EC3A733A0000073003178F00C4
:100E500010308D000313A6016721442F203220108B
:100E60002010201020102010201020102010201002
:100E7000201020106922E1396C31A0324322A021D8
:100E8000F537703AF43A0000073003178F002E3020
:100E90008D000313A6016721622FA02220102010CD
:100EA00020102010201020102010201020102010C2
:100EB0002010EE22E23065364410C3216F10F43A60
:100EC0007538003A073003178F004D308D0003133B
:100ED000A6016721882F2028201020102010201024
:100EE0002010201020102010201020102010722818
:100EF000E7376139A0366539E933F439F232281021
:100F000069326539F4316110E331F332A9390000F7
:100F1000073003178F006B308D000313A601672184
:100F2000AD2F20382010201020102010201020106D
:100F3000201020102010201020107228E73761396F
:100F4000A0366539E933F439F23228106138E533D7
:100F50002032E330E531F3398014073003178F0076
:100F600091308D000313A6016721CC2FA01F201004
:100F700020102010201020102010201020102010F1
:100F800020102010652470362810683AF3346D1054
:100F9000F332E139E5338014073003178F00B630A0
:100FA0008D000313A6016721EA2F202C20102010AA
:100FB00020102010201020102010201020102010B1
:100FC00020106529E539203A4322A021EE32EF3185
:100FD00065320039073003178F00D5308D000313B9
:100FE000A6015D29000000000000000000000000D4
:100FF00000000000000000000000000000000000F1
:101000000000000000000000000000008A15271CFE
:1010100026288A0159218A151928BF1FA01FEE2AE8
:10102000EE35F7372D37EF31ED36EE303A326010CE
:101030000000083003178F000D308D000313A60148
:101040008A015D2100084F2127304F293F308A0156
:101050004F290008663A031D2F288A01572C0008E3
:10106000623A031D35288A019A2C0008733A031D41
:101070003B288A010E2C0008723A031D41288A0180
:10108000172D0008633A031D47288A01FE2C00082B
:10109000433A031D4D288A01DD2C0008763A031DD2
:1010A00053288A013F2D0008563A031D59288A010A
:1010B000522D0008613A031D5F288A01A42B000805
:1010C000683A031D65288A01542D0008463A031D1D
:1010D0006B288A017B2D0008643A031D71288A0160
:1010E0008F2D0008453A031D77288A01A42D00089A
:1010F000503A031D7D288A01B72B0008703A031D62
:1011000083288A01E52B00083F3A031D89288A01BC
:10111000B92D0008583A031D902805108A010028AF
:101120000008CE3E031C08008A01F22F00080319B4
:1011300005140008AE00840AAD0008002E18B82877
:10114000AC282A152015482AD222C1262026CC20D8
:10115000D222202A2A150015083003178F00A1304B
:101160008D000313A601271CB7288A0167210510EB
:10117000061ED6280010CB282A152015CE222022A4
:10118000C627541045244D29CC204110452654290A
:101190002A102A150000083003178F00BC308D007C
:1011A0000313A601271CD6288A0167219628AE18AA
:1011B000F428E8282A152015C829D227202AC92171
:1011C0004329C92A202ACC20D222202A2A150015F8
:1011D000083003178F00DA308D000313A601271C97
:1011E000F3288A0167210510861A152980100A291B
:1011F0002A152015CE222022C62753104F24542909
:101200004310D224D521D4244110452654292A1034
:101210002A150000083003178F00F8308D000313E3
:10122000A601271C15298A01672196282D08840309
:1012300080000139031D9E288018D7289628FF308A
:10124000B300FF30B4001030B500063083169F00A5
:1012500083128501C0308316850083128601F83021
:101260008316860083128701953083168700143019
:1012700099002430980083129030980083308316B0
:10128000810083128B16F0308100AD01AE018B1707
:101290008A0101298A01F7206B25D320ED206B25D7
:1012A0008A15271C55298A0167290800271C7529DA
:1012B0008A0159218A156C29EF21ED36EE30203252
:1012C0007414F03CA0323F30A0136F3320396534E2
:1012D0007036A014201F0000093003178F005C3007
:1012E0008D000313A6018A015D293E308A014F2932
:1012F000A71887168A158C1A82292D08031D162116
:101300008A157A2908008A1556218A1578218A01BA
:1013100071218A152920840A8A1583295030840076
:10132000A5011F2105148A01D422033019200008C9
:10133000840A00388A150319A1298A0127218A15F0
:10134000A3298A013B218A01BD229D2164238A159C
:101350004A218A15832900000000000000000000D7
:04400E00623FFF3FCF
:10420000FFFFFFFFFFFFFFFFFFFFFFFFFFFFFFFFBE
:00000001FF
