:1000000008308A00002A0000FF00030E8301A200CE
:100010000A08A3008A01FC290000A50A250B080094
:100020000B08A4008B130800A50B0800A41B8B175A
:10003000080003178D0083168C130C1483120C0810
:100040000313840380000800831603178C130C1518
:10005000031383120D205530831603178D00AA3029
:100060008D008C14031383121420831603170C11B4
:10007000031383120800831603178C183D280313FB
:10008000831208000008840A03178D000313000878
:10009000840A03178C00031324203B28F6308007C2
:1000A0003A300318073E800708000008001E093E8A
:1000B0000F3980000800831603178C170C140000FA
:1000C0000000031383120800831603178C170C1506
:1000D000031383128B138316031755308D00AA3038
:1000E0008D008C1400000000031383128B178316FD
:1000F00003170C11031383120800261C8728A6017E
:1001000003170C0803137F39840380000800A60A34
:100110005B2003170E080313840380000310800D77
:1001200003170C0803138039031D001403178D0AED
:100130000313031D9E2803178F0A0313080086303C
:10014000A800A80BA12808000E30A800C830A900FC
:10015000A90BA828A80BA6280800C830A800FA30C8
:10016000A900A90BB128A80BAF280800871400002C
:100170000000000087100800AB018019AB150019C2
:100180002B1680182B150018AB16840AC330850572
:100190002B088504B628000884038000800E0F30E9
:1001A0008005BC2000000000BC209F28AC0A8715F9
:1001B000CB20871108007D2000080319E128D620F4
:1001C000DB28840A0800AC01013084038000CB20C6
:1001D000A428000884038000800E0F3080054E2084
:1001E000D6200F3080054E20D6282C08103A03194F
:1001F000FE28203084038000D620F5280800AC01BA
:10020000803084038000CB28AC01C03084038000A0
:10021000CB28AD20033084038000BC20AD20033008
:1002200084038000BC209F20033084038000BC2016
:100230009F20023084038000BC209F20283084034C
:100240008000CB20083084038000CB20E3200630E0
:1002500084038000CB200F3084038000CB28271438
:10026000042101308A003D292010E1267537EC3049
:100270002010EF36653220100000013003178F0088
:1002800034308D000313A601DB2827100421013030
:100290008A0053294110F43AED37F430E3346D10FD
:1002A000E437A0320000013003178F004A308D0080
:1002B0000313A601DB280C1E5B29A71C6129071E5E
:1002C0005F299900080020305B290D305B210A303E
:1002D0005B297D200008031971290008840A5B212D
:1002E0006929840A08007D20000803197B29000879
:1002F000840A5B217329840A6529A71887168C1E36
:100300007F291A0884038000981C8829181218165F
:10031000A7188712271C080000085B297D2155209B
:10032000800EF03080057D2155200008840A80046D
:100330000800000884038000800E0F3080054E20E6
:100340000008840A5B210F3080054E200008840AD3
:100350005B29861006158510080086140611851481
:1003600008002D14AD29AD14AD29AF002F08810769
:10037000640008006430B529EE30B529B60A3608A5
:10038000013A031DCA29FF30B300FC30B4000F301E
:10039000B50008003608023A031DD429FF30B30027
:1003A000B4010930B50008003608033A031DDD2901
:1003B000B301B4010930B5000800B601FF30B30045
:1003C0008030B4000930B5000800271DEA29B601C5
:1003D000BE21ED290130B500AF0108003608031D2C
:1003E000BE2932080319E5293008B3003108B400EA
:1003F0003208B500B20108000B11061EB1212F080A
:100400000319072A06102F088107AF01122A0614C4
:10041000B40DB30D031C0E2ABC210F2ABA21B5035B
:100420000319EE2123088A00220E8300FF0E7F0E9F
:1004300009000008840380009921632169213A3072
:100440005B2163210008840A19209921652965210F
:100450008403800102308A003F2A7527E236F23297
:100460006F102033693AE536A0396F3A7210F032D6
:10047000E132203AA030EF31ED36EE30003202307A
:1004800003178F002D308D000313A60119220130B0
:100490008403800002308A005F2AE52365376139D2
:1004A000653A69106C32A0326138EB31F432A03910
:1004B0006414E632F5307436201DA91800000230AD
:1004C00003178F004D308D000313A601192202304F
:1004D0008403800002308A00812AF32AA03261342A
:1004E0006439E13B653966106F36A03BEF317437F4
:1004F0006F3920366414E632F5307436201D291821
:100500000000023003178F006D308D000313A60129
:10051000192203308403800002308A00A12A652B4F
:100520006239F337A032EF3665326110203A65390F
:10053000E539203A6414E632F5307436201DA918E6
:100540000000023003178F008F308D000313A601C7
:10055000192A033084038000840380014220013083
:1005600084038000013084038000422084038001E2
:100570000230840380004220013084038000033075
:1005800084038000422027308403800004308403E9
:100590008000422005308403800005308403800001
:1005A0004228013019200008840A00380319DA2A89
:1005B0002715DB2A2711023019200008840A003889
:1005C0000319E42AA714E52AA710A71C8716080018
:1005D0000430192027300006840A0038031DF82A49
:1005E0000530192005300006840A00380319080078
:1005F000652103308A00172B61212032EF316637E5
:10060000E734F23AF430EF3420376132613A2016A1
:100610006539653B7439EE34A0336F3A6610E330C8
:100620006F3A79396410E632F53074368039023029
:1006300003178F00FC308D000313A6017321A92A34
:10064000A71D292B3208031D222BFC30B0000630D9
:10065000B2003208031D292BB701FF30B000FC3077
:10066000B1000F30B20008000008B706840AB000DD
:100670000930B2000800840380003208031D3D2BBE
:10068000B101342B3208031D422BB117342B37082C
:1006900084038000422B20233808BE0039083B2306
:1006A000BE030319472B3A083B23BE030319472B0C
:1006B0003B083B23BE030319472B3C083B23BE03E7
:1006C0000319472B3D083B23472BBF004B23BF0B90
:1006D000662B0800030119200008840A652B0A30E4
:1006E000BF00AD20BF0B712B08000230B800B9016C
:1006F000BA01080075236A2BA7156F2375230330F1
:10070000652B752306306523A7116F2B0230B800C7
:100710000008840ABA0078300004840AB900053061
:10072000652B2718632121305B21271863290800D6
:10073000271863218E210008840A08008E210008F2
:10074000B800840ABE009823B900BE03031908004C
:100750009823BA00BE03031908009823BB00BE0308
:10076000031908009823BC00BE030319080098234E
:10077000BD00080003308A00C32B79377010E330C6
:10078000E535203A0000033003178F00BD308D009F
:100790000313A601271869219E2391236A2B033096
:1007A0008A00E02B6F39F233ED30E93667372810D5
:1007B00069326539F431A0146138EB31F43200103C
:1007C000033003178F00D2308D000313A6012718C2
:1007D00069218E218E21271863218E2191237C236C
:1007E0000330B8000008840ABB000008840ABA007D
:1007F0007C300004840AB90005306523812B043065
:100800008A00102C6F39F233ED30E9366737281043
:100810006138E53329327010E330E535203A0000C5
:10082000043003178F0002308D000313A601271830
:1008300069218E21271863218E2191237C23013089
:1008400084038000053084038000862381237C2379
:100850008623812B04308A00392C6F3A2038EE32FF
:10086000E93365376910ED36E432E134653A7936BB
:100870000010043003178F002D308D000313A601E4
:10088000271869210230B800FF20F520FF2004302E
:100890008A00512C53106F3A2038EE32E933653715
:1008A000001D043003178F004A308D000313A6018A
:1008B000DB208E21000884038000E9200008840AE0
:1008C000B9004130BA006A239123203084038000AC
:1008D000D62880030310800C0318001642308007CE
:1008E00008000008031D692C403080000800043017
:1008F0008A007E2CF237E13B643900100430031784
:100900008F007A308D000313A60127186921023069
:10091000B800FF20F520FF2004308A00922CEE2240
:10092000BA330000043003178F008F308D0003139B
:10093000A601DB208E21000884038000E920000846
:10094000840AB90004308A00AA2C53106538E432B6
:100950002B1D0000043003178F00A5308D000313FA
:10096000A601DB20271863218E2100088403800064
:10097000E920712480160008840ABA0091236A2BAA
:1009800004308A00C82CE330F735F2302032000002
:10099000043003178F00C3308D000313A6012718FE
:1009A00069210230B800FF20F520FF2004308A00C2
:1009B000DC2CEE22BA330000043003178F00D9304C
:1009C0008D000313A601DB208E2100088403800024
:1009D000E9200008840AB90004308A00F42C53107E
:1009E0006538E4322D1D0000043003178F00EF300E
:1009F0008D000313A601DB20271863218E21000838
:100A000084038000E92071240008840ABA0091233D
:100A10006A2B05308A00152DEE376933F5336139BD
:100A2000693AEE377310F4320010053003178F0067
:100A30000C308D000313A601271869218E21271879
:100A400063218E2191230008840A00068006000697
:100A5000840380004220D12A05308A00382DEE37E9
:100A60006933F5336139693AEE376710F4320010B3
:100A7000053003178F002F308D000313A6012718B0
:100A800069218E2191230008840A192099297A234B
:100A9000FF2005308A00552DED24E5366932F4300B
:100AA000A0326529E539213A0000053003178F008F
:100AB0004C308D000313A601DB2005308A00692D20
:100AC000F332F4326910ED36E432E134653A7936C6
:100AD0000000053003178F0060308D000313A6015E
:100AE00027186921912B05308A007E2D653B6239DC
:100AF000F337A032EF3665326F1000370530031739
:100B00008F0076308D000313A60169212F21912BD0
:100B10004521912B05308A00982DEC322038EE3794
:100B20006310EE376933F5336139693AEE37000007
:100B3000053003178F008D308D000313A601271891
:100B400069219123272A05308A00AD2D4322A02157
:100B50004928A0212E18B3190019053003178F005A
:100B6000A6308D000313A601080005308A00C02DB1
:100B7000E3306F3A79396410E632F53074368039F3
:100B8000053003178F00B8308D000313A601271816
:100B900069219123A92AAD2105308A00D82DF3348B
:100BA000E23065364410C3216F10F43A7538003ACC
:100BB000053003178F00CF308D000313A6012718CF
:100BC0006921912B05308A00EE2D61376C31A032FE
:100BD0004322A021F537703AF43A0000053003179C
:100BE0008F00E5308D000313A6012718692191239A
:100BF000A92991236521A325732106308A001C2E83
:100C000020336F36EF3173106538E4322010201036
:100C10002010201020102010EF26653B6C10E337C9
:100C2000A037EE346610F237E13B64396410F234D9
:100C3000E332693AEE370000063003178F008D016A
:100C40000313A601732106308A00422E20316F362D
:100C5000EF3173106538E43220102010201020107E
:100C600020102010EF26653B6C10E337A037EE34E0
:100C70006210E330F735F230203269326539F431F1
:100C8000EF340037063003178F0026308D00031332
:100C9000A601732106308A00612EA0396F36EF312C
:100CA00020102010201020102010201020102010C4
:100CB0002010ED22F232E5336337A03CF439F037EF
:100CC0000000063003178F004D308D000313A6017E
:100CD000732106308A00802E203920102010201029
:100CE0002010201020102010201020102010201084
:100CF000ED22F232E5336337A03C6539E539003A3D
:100D0000063003178F006C308D000313A60173218A
:100D100006308A00A52EA0316E372010201020103A
:100D20002010201020102010201020102010E5236B
:100D3000203AEF316637E734F23AF430EF342037B7
:100D400061386139E536653A0039063003178F009E
:100D50008B308D000313A601732106308A00CA2E42
:100D6000A0216E377610203B20102010201020107C
:100D70002010201020102010E529203AEF3166378E
:100D8000E734F23AF430EF34203761386139E53630
:100D9000653A0039063003178F00B0308D00031319
:100DA000A601732106308A00EC2E203B2010201073
:100DB00020102010201020102010201020102010B3
:100DC0002010752A6E397610F2326F31E5396D10C8
:100DD000E437A032EE370000063003178F00D5301D
:100DE0008D000313A601732107308A000E2F202BDC
:100DF0002010201020102010201020102010201073
:100E0000201020102010752A6E397610F2326F31C2
:100E1000E5396D10E437A032E637003306300317AA
:100E20008F00F7308D000313A601732107308A006D
:100E3000322FA03065366737683A7810203CF93C8D
:100E40007A10203D2E1720172010E52964376110F5
:100E500079377610EC30E4344410C3217010E3305D
:100E6000E535003A073003178F0019308D00031362
:100E7000A601732107308A005A2F20342010201039
:100E800020102010201020102010201020102010E2
:100E900020106926F4396F102033EF316637E734BC
:100EA000F23AF430EF34203761386139E536653A8B
:100EB00073390000073003178F003D308D00031396
:100EC000A601732107308A007A2F202320102010DA
:100ED0002010201020102010201020102010201092
:100EE00020106123F431F237A03C65326133EC3AD3
:100EF000733A0000073003178F0065308D0003132D
:100F0000A601732107308A009B2F20322010201069
:100F10002010201020102010201020102010201051
:100F200020106922E1396C31A0324322A021F5372B
:100F3000703AF43A0000073003178F0085308D00B7
:100F40000313A601732107308A00BB2FA0222010B3
:100F50002010201020102010201020102010201011
:100F600020102010EE22E23065364410C3216F10AD
:100F7000F43A7538003A073003178F00A6308D0019
:100F80000313A601732107308A00E32F20282010C5
:100F900020102010201020102010201020102010D1
:100FA000201020107228E7376139A0366539E933FF
:100FB000F439F232281069326539F4316110E331C5
:100FC000F332A9390000073003178F00C6308D00B7
:100FD0000313A601732108308A000A282038201044
:100FE0002010201020102010201020102010201081
:100FF000201020107228E7376139A0366539E933AF
:10100000F439F23228106138E5332032E330E5312B
:10101000F3398014073003178F00EE308D0003136F
:10102000A6018A01732108308A002C28A01F2010F5
:101030002010201020102010201020102010201030
:1010400020102010652470362810683AF3346D1093
:10105000F332E139E5338014083003178F0016307E
:101060008D000313A6018A01732108308A004D28E0
:10107000202C2010201020102010201020102010D4
:1010800020102010201020106529E539203A432235
:10109000A021EE32EF3165320039083003178F009E
:1010A00038308D000313A6018A0169290000000071
:1010B0000000000000000000000000000000000030
:1010C0000000000000000000000000000000000020
:1010D00000000000271C8A288A01652108308A0048
:1010E0007D28BF1FA01FEE2AEE35F7372D37EF31D1
:1010F000ED36EE303A3260100000083003178F00F2
:1011000071308D000313A6018A01692100085B215B
:1011100027305B293F308A015B290008663A031DAE
:1011200093288A01772C0008623A031D99288A01C6
:10113000C02C0008733A031D9F288A012A2C00083E
:10114000723A031DA5288A01472D0008633A031D42
:10115000AB288A012C2D0008433A031DB1288A01CF
:10116000092D0008763A031DB7288A01732D00085F
:10117000563A031DBD288A01882D0008613A031DD7
:10118000C3288A01BA2B0008683A031DC9288A01BE
:101190008A2D0008463A031DCF288A01B52D000884
:1011A000643A031DD5288A01CB2D0008453A031D5A
:1011B000DB288A01E22D0008503A031DE1288A014C
:1011C000CF2B0008703A031DE7288A01FF2B000887
:1011D0003F3A031DED288A01F92D0008583A031DF6
:1011E000F42805108A0100280008CE3E031C0800E0
:1011F00056280008031905140008AE00840AAD0043
:1012000008002E181E2909308A0011292A152015D8
:10121000482AD222C1262026CC20D222202A2A15D2
:101220000015093003178F0006308D000313A60147
:10123000271C1D298A0173218A150510061E3F29C6
:10124000001009308A0033292A152015CE222022C9
:10125000C627541045244D29CC2041104526542939
:101260002A102A150000093003178F0024308D0042
:101270000313A601271C3F298A0173218A15F92827
:10128000AE18602909308A0053292A152015C8296B
:10129000D227202AC9214329C92A202ACC20D22298
:1012A000202A2A150015093003178F0045308D00BC
:1012B0000313A601271C5F298A0173218A150510D3
:1012C000861A8429801009308A0078292A15201569
:1012D000CE222022C62753104F2454294310D22453
:1012E000D521D4244110452654292A102A1500005E
:1012F000093003178F0066308D000313A601271CE9
:1013000084298A0173218A15F9282D088403800015
:101310000139031D012980184029F928FF30B30045
:10132000FF30B4001030B500063083169F008312E2
:101330008501C0308316850083128601F83083163C
:101340008600831287019530831687001430990038
:1013500024309800831290309800833083168100E7
:1013600083128B16F0308100AD01AE018B178A011C
:1013700009298A01FF20A325DB20F520A3258A1552
:10138000271CC5298A0173218A150800271CE62914
:101390008A01652109308A00DD29EF21ED36EE3022
:1013A00020327414F03CA0323F30A0136F33203948
:1013B00065347036A014201F0000093003178F0019
:1013C000CD308D000313A6018A0169293E308A01C0
:1013D0005B29A71887168A158C1AF4292D0803197A
:1013E000F32985218A15EB2908008A15C6218A155B
:1013F000E9218A017D218A158D20840A8A15F52923
:1014000050308400A5018E2105148A01E8220330A2
:1014100019200008840A00388A150319132A8A0142
:101420002F218A15162A8A0145218A158A01D1227F
:10143000A9217A238A15B9218A15F529000000000F
:04400E00623FFF3FCF
:10420000FFFFFFFFFFFFFFFFFFFFFFFFFFFFFFFFBE
:00000001FF
