:1000000008308A008A290000FF00030E8301A20045
:100010000A08A3008A01EC290000A4018B1B241408
:100020008B13080024188B17080003178D00831604
:100030008C130C1483120C08031384038000080033
:10004000831603178C130C15031383120D205530E0
:10005000831603178D00AA308D008C1403138312AE
:100060001220831603170C11031383120800831642
:1000700003178C1839280313831208000008840A18
:1000800003178D0003130008840A03178C00031361
:1000900020203728F63080073A300318073E8007C3
:1000A00008000008001E093E0F3980000800831672
:1000B00003178C170C1400000000031383120800B0
:1000C000831603178C170C158B1355308D00AA302F
:1000D0008D008C14000000008B170C110313831289
:1000E0000800251C7B28A50103170C0803137F3982
:1000F000840380000800A50A572003170E08031385
:10010000840380000310800D03170C08031380394B
:10011000031D001403178D0A0313031D92280317F0
:100120008F0A031308008630A700A70B9528080044
:100130000E30A700C830A800A80B9C28A70B9A284F
:100140000800C830A700FA30A800A80BA528A70B04
:10015000A328080087140000000000008710080092
:10016000AA018019AA1500192A1680182A15001844
:10017000AA16840AC33085052A088504AA2800081F
:1001800084038000800E0F308005B0200000000046
:10019000B0209328AB0A8715BF2087110800712073
:1001A00000080319D528CA20CF28840A0800AB010B
:1001B000013084038000BF20982800088403800059
:1001C000800E0F3080054A20CA200F3080054A205B
:1001D000CA282B08103A0319F22820308403800023
:1001E000CA20E9280800AB01803084038000BF28C2
:1001F000AB01C03084038000BF28A12003308403FA
:100200008000B020A120033084038000B020932020
:10021000033084038000B0209320023084038000E8
:10022000B0209320283084038000BF20083084034E
:100230008000BF20D720063084038000BF200F300D
:1002400084038000BF282614F8202F292010E126DF
:100250007537EC302010EF36653220100000013089
:1002600003178F0026308D000313A501CF28261019
:10027000F82043294110F43AED37F430E3346D109F
:10028000E437A0320000013003178F003A308D00B0
:100290000313A501CF280C1E4B29A61C5129071EAC
:1002A0004F299900080020304B290D304B210A308E
:1002B0004B2971200008031961290008840A4B2189
:1002C0005929840A08007120000803196B290008C5
:1002D000840A4B216329840A5529A61887168C1E87
:1002E0006F291A0884038000981C782918121816A0
:1002F000A6188712261C080000084B296D215120E2
:10030000800EF03080056D2151200008840A8004A1
:100310000800000884038000800E0F3080054A200A
:100320000008840A4B210F3080054A200008840A07
:100330004B298610061585100800861406118514B1
:1003400008002C149D29AC149D29AE002E088107AD
:10035000640008006430A529EE30A529B50A3508E7
:10036000013A031DBA29FF30B200FC30B3000F3050
:10037000B40008003508023A031DC429FF30B2005A
:10038000B3010930B40008003508033A031DCD2934
:10039000B201B3010930B4000800B501FF30B2006A
:1003A0008030B3000930B4000800261DDA29B501F9
:1003B000AE21DD290130B400AE0108003508031D6F
:1003C000AE2931080319D5292F08B2003008B3002F
:1003D0003108B400B10108000B11061EA1212E083E
:1003E0000319F72906102E088107AE01022A061408
:1003F000B30DB20D031CFE29AC21FF29AA21B403C1
:100400000319DE2123088A00220E8300FF0E7F0ECF
:1004100009000008840380008921532159213A30C2
:100420004B2153210008840A152089215529552183
:10043000840380012D2A7527E236F2326F102033B3
:10044000693AE536A0396F3A7210F032E132203A5B
:10045000A030EF31ED36EE300032023003178F005E
:100460001B308D000313A501092201308403800095
:100470004B2AE52365376139653A69106C32A03241
:100480006138EB31F432A0396414E632F530743659
:10049000201DA9180000023003178F0039308D008D
:1004A0000313A50109220230840380006B2AF32A7A
:1004B000A03261346439E13B653966106F36A03B88
:1004C000EF3174376F3920366414E632F530743604
:1004D000201D29180000023003178F0057308D00AF
:1004E0000313A5010922033084038000892A652BA8
:1004F0006239F337A032EF3665326110203A653940
:10050000E539203A6414E632F5307436201DA91816
:100510000000023003178F0077308D000313A50110
:10052000092A033084038000840380013E200130C7
:10053000840380000130840380003E208403800116
:100540000230840380003E200130840380000330A9
:10055000840380003E20273084038000043084031D
:1005600080003E2005308403800005308403800035
:100570003E28013015200008840A00380319C22AD9
:100580002615C32A2611023015200008840A0038D7
:100590000319CC2AA614CD2AA610A61C871608007B
:1005A0000430152027300006840A0038031DE02A95
:1005B0000530152005300006840A003803190800AC
:1005C0005521FD2A61212032EF316637E734F23AB6
:1005D000F430EF3420376132613A20166539653BDB
:1005E0007439EE34A0336F3A6610E3306F3A7939DC
:1005F0006410E632F53074368039023003178F000C
:10060000E2308D000313A5016321912AA61D0F2B53
:100610003108031D082BFC30AF000630B100310853
:10062000031D0F2BB601FF30AF00FC30B0000F30C0
:10063000B10008000008B606840AAF000930B10016
:100640000800840380003108031D232BB0011A2BFE
:100650003108031D282BB0171A2B3608840380009D
:10066000282B06233708BD0038082123BD030319B2
:100670002D2B39082123BD0303192D2B3A082123E3
:10068000BD0303192D2B3B082123BD0303192D2B7B
:100690003C0821232D2BBE003123BE0B4C2B080020
:1006A000030115200008840A4B2B0A30BE00A1204C
:1006B000BE0B572B08000230B700B801B901080083
:1006C0005B23502BA61555235B2303304B2B5B2359
:1006D00006304B23A611552B0230B7000008840AC0
:1006E000B90078300004840AB80005304B2B261876
:1006F000532121304B212618532908002618532155
:100700007E210008840A08007E210008B700840AC0
:10071000BD007E23B800BD03031908007E23B90085
:10072000BD03031908007E23BA00BD0303190800A6
:100730007E23BB00BD03031908007E23BC00080014
:10074000A72B79377010E330E535203A00000330ED
:1007500003178F00A1308D000313A501261859211E
:1007600084237723502BC22B6F39F233ED30E936D7
:100770006737281069326539F431A0146138EB31DC
:10078000F4320010033003178F00B4308D000313D0
:10079000A501261859217E217E21261853217E216C
:1007A000772362230330B7000008840ABA000008E8
:1007B000840AB9007C300004840AB80005304B2359
:1007C000672BF02B6F39F233ED30E936673728109D
:1007D0006138E53329327010E330E535203A000006
:1007E000033003178F00E2308D000313A501261894
:1007F00059217E21261853217E217723622301303F
:10080000840380000530840380006C236723622307
:100810006C23672B172C6F3A2038EE32E93365379B
:100820006910ED36E432E134653A7936001004306F
:1008300003178F000B308D000313A50126185921D3
:100840000230B700F320E920F3202D2C53106F3A2B
:100850002038EE32E9336537001D043003178F006E
:1008600026308D000313A501CF207E2100088403CC
:100870008000DD200008840AB8004130B900502310
:100880007723203084038000CA2880030310800C63
:10089000031800164230800708000008031D452C8D
:1008A000403080000800582CF237E13B64390010DA
:1008B000043003178F0054308D000313A501261850
:1008C00059210230B700F320E920F3206A2CEE22F0
:1008D000BA330000043003178F0067308D00031314
:1008E000A501CF207E21000884038000DD200008C0
:1008F000840AB800802C53106538E4322B1D0000A8
:10090000043003178F007B308D000313A501CF2027
:10091000261853217E21000884038000DD204D2409
:1009200080160008840AB9007723502B9C2CE330F2
:10093000F735F23020320000043003178F00973073
:100940008D000313A501261859210230B700F320AA
:10095000E920F320AE2CEE22BA3300000430031756
:100960008F00AB308D000313A501CF207E2100083E
:1009700084038000DD200008840AB800C42C5310D2
:100980006538E4322D1D0000043003178F00BF309E
:100990008D000313A501CF20261853217E210008C6
:1009A00084038000DD204D240008840AB9007723E9
:1009B000502BE32CEE376933F5336139693AEE3762
:1009C0007310F4320010043003178F00DA308D00FA
:1009D0000313A501261859217E21261853217E21B3
:1009E00077230008840A000680060006840380003E
:1009F0003E20B92A042DEE376933F5336139693A5F
:100A0000EE376710F4320010043003178F00FB300C
:100A10008D000313A501261859217E217723000894
:100A2000840A152089296023F3201F2DED24E53643
:100A30006932F430A0326529E539213A00000530E9
:100A400003178F0016308D000313A501CF20312D21
:100A5000F332F4326910ED36E432E134653A793636
:100A60000000053003178F0028308D000313A50107
:100A700026185921772B442D653B6239F337A03274
:100A8000EF3665326F100037053003178F003C30AA
:100A90008D000313A50159212321772B3721772BB3
:100AA0005C2DEC322038EE376310EE376933F533C6
:100AB0006139693AEE370000053003178F00513075
:100AC0008D000313A501261859217723172A6F2DAE
:100AD0004322A0214928A0212E18B319001905305E
:100AE00003178F0068308D000313A5010800802DC7
:100AF000E3306F3A79396410E632F5307436803974
:100B0000053003178F0078308D000313A5012618D8
:100B100059217723912A9D21962DF334E2306536B1
:100B20004410C3216F10F43A7538003A05300317AA
:100B30008F008D308D000313A50126185921772BC6
:100B4000AA2D61376C31A0324322A021F537703ACB
:100B5000F43A0000053003178F00A1308D00031315
:100B6000A50126185921772399297723552167252F
:100B70006321D62D20336F36EF3173106538E432A0
:100B8000201020102010201020102010EF26653B90
:100B90006C10E337A037EE346610F237E13B64396E
:100BA0006410F234E332693AEE370000053003177F
:100BB0008F00BA308D000313A5016321FB2D203176
:100BC0006F36EF3173106538E4322010201020109A
:100BD000201020102010EF26653B6C10E337A03763
:100BE000EE346210E330F735F23020326932653985
:100BF000F431EF340037053003178F00DF308D00FC
:100C00000313A5016321182EA0396F36EF31201090
:100C10002010201020102010201020102010201054
:100C2000ED22F232E5336337A03CF439F0370000AF
:100C3000063003178F0004308D000313A5016321D4
:100C4000352E2039201020102010201020102010C8
:100C500020102010201020102010ED22F232E53359
:100C60006337A03C6539E539003A063003178F0039
:100C700021308D000313A5016321582EA0316E375A
:100C800020102010201020102010201020102010E4
:100C900020102010E523203AEF316637E734F23A8E
:100CA000F430EF34203761386139E536653A003980
:100CB000063003178F003E308D000313A50163211A
:100CC0007B2EA0216E377610203B201020102010A4
:100CD00020102010201020102010E529203AEF319C
:100CE0006637E734F23AF430EF342037613861394F
:100CF000E536653A0039063003178F0061308D0004
:100D00000313A50163219B2E203B201020102010EF
:100D10002010201020102010201020102010201053
:100D2000752A6E397610F2326F31E5396D10E4377D
:100D3000A032EE370000063003178F0084308D009C
:100D40000313A5016321BB2E202B2010201020109F
:100D50002010201020102010201020102010201013
:100D6000752A6E397610F2326F31E5396D10E4373D
:100D7000A032E6370033063003178F00A4308D0011
:100D80000313A5016321DD2EA03065366737683A6D
:100D90007810203CF93C7A10203D2E1720172010A7
:100DA000E5296437611079377610EC30E43444106B
:100DB000C3217010E330E535003A063003178F0089
:100DC000C4308D000313A5016321032F20342010AC
:100DD0002010201020102010201020102010201093
:100DE000201020106926F4396F102033EF31663758
:100DF000E734F23AF430EF34203761386139E536C0
:100E0000653A73390000063003178F00E6308D0015
:100E10000313A5016321212F20232010201020106F
:100E20002010201020102010201020102010201042
:100E30006123F431F237A03C65326133EC3A733A06
:100E40000000073003178F000C308D000313A5013D
:100E50006321402F2032201020102010201020105D
:100E60002010201020102010201020106922E139BD
:100E70006C31A0324322A021F537703AF43A0000D9
:100E8000073003178F002A308D000313A50163215B
:100E90005E2FA022201020102010201020102010E3
:100EA00020102010201020102010EE22E230653695
:100EB0004410C3216F10F43A7538003A0730031715
:100EC0008F0049308D000313A5016321842F202852
:100ED0002010201020102010201020102010201092
:100EE0002010201020107228E7376139A0366539AC
:100EF000E933F439F232281069326539F43161107E
:100F0000E331F332A9390000073003178F0067304F
:100F10008D000313A5016321A92F20382010201074
:100F20002010201020102010201020102010201041
:100F300020107228E7376139A0366539E933F43972
:100F4000F23228106138E5332032E330E531F339ED
:100F50008014073003178F008D308D000313A50117
:100F60006321C82FA01F2010201020102010201057
:100F70002010201020102010201020106524703622
:100F80002810683AF3346D10F332E139E5338014F8
:100F9000073003178F00B2308D000313A5016321C2
:100FA000E62F202C201020102010201020102010C0
:100FB000201020102010201020106529E539203A3B
:100FC0004322A021EE32EF3165320039073003179A
:100FD0008F00D1308D000313A501592900000000B6
:100FE0000000000000000000000000000000000001
:100FF00000000000000000000000000000000000F1
:10100000000000008A15261C22288A0155218A1515
:101010001528BF1FA01FEE2AEE35F7372D37EF3109
:10102000ED36EE303A3260100000083003178F00C2
:1010300009308D000313A5018A01592100084B21B5
:1010400027304B293F308A014B290008663A031D9F
:101050002B288A01532C0008623A031D31288A018B
:10106000962C0008733A031D37288A010A2C0008C1
:10107000723A031D3D288A01132D0008633A031DAF
:1010800043288A01FA2C0008433A031D49288A01A3
:10109000D92C0008763A031D4F288A013B2D000801
:1010A000563A031D55288A014E2D0008613A031D4A
:1010B0005B288A01A02B0008683A031D61288A0179
:1010C000502D0008463A031D67288A01772D000835
:1010D000643A031D6D288A018B2D0008453A031DD3
:1010E00073288A01A02D0008503A031D79288A012F
:1010F000B32B0008703A031D7F288A01E12B0008FA
:101100003F3A031D85288A01B52D0008583A031D72
:101110008C2805108A0100280008CE3E031C080018
:101120008A01EE2F0008031905140008AD00840A97
:10113000AC0008002D18B428A8282A152015482A24
:10114000D222C1262026CC20D222202A2A15001500
:10115000083003178F009D308D000313A501261C56
:10116000B3288A0163210510061ED2280010C72863
:101170002A152015CE222022C627541045244D2999
:10118000CC204110452654292A102A150000083089
:1011900003178F00B8308D000313A501261CD22839
:1011A0008A0163219228AD18F028E4282A15201519
:1011B000C829D227202AC9214329C92A202ACC207C
:1011C000D222202A2A150015083003178F00D630A6
:1011D0008D000313A501261CEF288A016321051049
:1011E000861A1129801006292A152015CE222022C0
:1011F000C62753104F2454294310D224D521D42478
:101200004110452654292A102A15000008300317DA
:101210008F00F4308D000313A501261C11298A01CB
:10122000632192282C08840380000139031D9A2829
:101230008018D3289228FF30B200FF30B30010305E
:10124000B400063083169F0083128501C0308316D8
:10125000850083128601F830831686008312870189
:10126000953083168700143099002430980083123B
:101270009030980083308316810083128B16F030F3
:101280008100AC01AD018B178A01FD288A01F32092
:101290006725CF20E92067258A15261C51298A0158
:1012A00063290800261C71298A0155218A1568299D
:1012B000EF21ED36EE3020327414F03CA0323F3096
:1012C000A0136F33203965347036A014201F00003E
:1012D000093003178F0058308D000313A5018A01D0
:1012E00059293E308A014B29A61887168A158C1A6F
:1012F0007E292C08031D12218A15762908008A15DB
:1013000052218A1574218A016D218A152520840AAB
:101310008A157F294F3084001B2105148A01D022B1
:10132000033015200008840A00388A1503199C2907
:101330008A0123218A159E298A0137218A01B9222F
:10134000992160238A1546218A157F290000000013
:04400E00623FFF3FCF
:10420000FFFFFFFFFFFFFFFFFFFFFFFFFFFFFFFFBE
:00000001FF
