:1000000008308A0095290000FF00030E8301A2003A
:100010000A08A3008A01F8290000A50A250B080098
:100020000B08A4008B130800A50B0800A41B8B175A
:10003000080003178D0083168C130C1483120C0810
:100040000313840380000800831603178C130C1518
:10005000031383120D205530831603178D00AA3029
:100060008D008C14031383121420831603170C11B4
:10007000031383120800831603178C183D280313FB
:10008000831208000008840A03178D000313000878
:10009000840A03178C00031324203B28F6308007C2
:1000A0003A300318073E800708000008001E093E8A
:1000B0000F3980000800831603178C170C140000FA
:1000C0000000031383120800831603178C170C1506
:1000D000031383128B138316031755308D00AA3038
:1000E0008D008C1400000000031383128B178316FD
:1000F00003170C11031383120800261C8728A6017E
:1001000003170C0803137F39840380000800A60A34
:100110005B2003170E080313840380000310800D77
:1001200003170C0803138039031D001403178D0AED
:100130000313031D9E2803178F0A0313080086303C
:10014000A800A80BA12808000E30A800C830A900FC
:10015000A90BA828A80BA6280800C830A800FA30C8
:10016000A900A90BB128A80BAF280800871400002C
:100170000000000087100800AB018019AB150019C2
:100180002B1680182B150018AB16840AC330850572
:100190002B088504B628000884038000800E0F30E9
:1001A0008005BC2000000000BC209F28AC0A8715F9
:1001B000CB20871108007D2000080319E128D620F4
:1001C000DB28840A0800AC01013084038000CB20C6
:1001D000A428000884038000800E0F3080054E2084
:1001E000D6200F3080054E20D6282C08103A03194F
:1001F000FE28203084038000D620F5280800AC01BA
:10020000803084038000CB28AC01C03084038000A0
:10021000CB28AD20033084038000BC20AD20033008
:1002200084038000BC209F20033084038000BC2016
:100230009F20023084038000BC209F20283084034C
:100240008000CB20083084038000CB20E3200630E0
:1002500084038000CB200F3084038000CB28271438
:1002600004213B292010E1267537EC302010EF36B1
:10027000653220100000013003178F0032308D00EE
:100280000313A601DB28271004214F294110F43A5B
:10029000ED37F430E3346D10E437A0320000013064
:1002A00003178F0046308D000313A601DB280C1EB8
:1002B0005729A71C5D29071E5B29990008002030DB
:1002C00057290D3057210A3057297D20000803197E
:1002D0006D290008840A57216529840A08007D20B9
:1002E0000008031977290008840A57216F29840A16
:1002F0006129A71887168C1E7B291A0884038000A1
:10030000981C842918121816A7188712271C080091
:100310000008572979215520800EF0308005792179
:1003200055200008840A8004080000088403800027
:10033000800E0F3080054E200008840A57210F30B0
:1003400080054E200008840A57298610061585105E
:10035000080086140611851408002D14A929AD146F
:10036000A929AF002F088107640008006430B12973
:10037000EE30B129B60A3608013A031DC629FF300E
:10038000B300FC30B4000F30B50008003608023A64
:10039000031DD029FF30B300B4010930B5000800B7
:1003A0003608033A031DD929B301B4010930B50059
:1003B0000800B601FF30B3008030B4000930B5004A
:1003C0000800271DE629B601BA21E9290130B50048
:1003D000AF0108003608031DBA2932080319E129C4
:1003E0003008B3003108B4003208B500B20108008B
:1003F0000B11061EAD212F080319032A06102F0822
:100400008107AF010E2A0614B40DB30D031C0A2A8E
:10041000B8210B2AB621B5030319EA2123088A0063
:10042000220E8300FF0E7F0E090000088403800067
:1004300095215F2165213A3057215F210008840A08
:10044000192095216129612184038001392A7527AA
:10045000E236F2326F102033693AE536A0396F3A4E
:100460007210F032E132203AA030EF31ED36EE304A
:100470000032023003178F0027308D000313A601CE
:100480001522013084038000572AE523653761393E
:10049000653A69106C32A0326138EB31F432A03920
:1004A0006414E632F5307436201DA91800000230BD
:1004B00003178F0045308D000313A601152202306B
:1004C00084038000772AF32AA03261346439E13B47
:1004D000653966106F36A03BEF3174376F392036BF
:1004E0006414E632F5307436201D291800000230FD
:1004F00003178F0063308D000313A601152203300C
:1005000084038000952A652B6239F337A032EF36D9
:1005100065326110203A6539E539203A6414E632D3
:10052000F5307436201DA9180000023003178F0023
:1005300083308D000313A601152A03308403800045
:100540008403800142200130840380000130840351
:100550008000422084038001023084038000422016
:100560000130840380000330840380004220273060
:10057000840380000430840380004220053084031B
:1005800080000530840380004228013019200008D3
:10059000840A00380319CE2A2715CF2A27110230E2
:1005A00019200008840A00380319D82AA714D92A68
:1005B000A710A71C87160800043019202730000652
:1005C000840A0038031DEC2A053019200530000686
:1005D000840A0038031908006121092B61212032A7
:1005E000EF316637E734F23AF430EF3420376132D6
:1005F000613A20166539653B7439EE34A0336F3AA1
:100600006610E3306F3A79396410E632F5307436AB
:100610008039023003178F00EE308D000313A601DE
:100620006F219D2AA71D1B2B3208031D142BFC30A4
:10063000B0000630B2003208031D1B2BB701FF309B
:10064000B000FC30B1000F30B20008000008B7065F
:10065000840AB0000930B200080084038000320828
:10066000031D2F2BB101262B3208031D342BB1178C
:10067000262B370884038000342B12233808BE0051
:1006800039082D23BE030319392B3A082D23BE0345
:100690000319392B3B082D23BE030319392B3C08C2
:1006A0002D23BE030319392B3D082D23392BBF0001
:1006B0003D23BF0B582B0800030119200008840AB2
:1006C000572B0A30BF00AD20BF0B632B0800023050
:1006D000B800B901BA01080067235C2BA715612394
:1006E00067230330572B672306305723A711612B4D
:1006F0000230B8000008840ABA0078300004840A86
:10070000B9000530572B27185F21213057212718B2
:100710005F29080027185F218A210008840A080041
:100720008A210008B800840ABE008A23B900BE03EB
:10073000031908008A23BA00BE03031908008A239C
:10074000BB00BE03031908008A23BC00BE030319C3
:1007500008008A23BD000800B32B79377010E330FE
:10076000E535203A0000033003178F00AD308D00CF
:100770000313A60127186521902383235C2BCE2B1E
:100780006F39F233ED30E936673728106932653951
:10079000F431A0146138EB31F43200100330031748
:1007A0008F00C0308D000313A601271865218A2110
:1007B0008A2127185F218A2183236E230330B80002
:1007C0000008840ABB000008840ABA007C300004D8
:1007D000840AB90005305723732BFC2B6F39F23391
:1007E000ED30E936673728106138E533293270106B
:1007F000E330E535203A0000033003178F00EE3078
:100800008D000313A601271865218A2127185F216F
:100810008A2183236E230130840380000530840302
:100820008000782373236E237823732B232C6F3A55
:100830002038EE32E93365376910ED36E432E134C1
:10084000653A79360010043003178F0017308D0099
:100850000313A601271865210230B800FF20F520F8
:10086000FF20392C53106F3A2038EE32E9336537C8
:10087000001D043003178F0032308D000313A601D2
:10088000DB208A21000884038000E9200008840A14
:10089000B9004130BA005C238323203084038000F8
:1008A000D62880030310800C0318001642308007FE
:1008B00008000008031D512C403080000800642C03
:1008C000F237E13B64390010043003178F006030C9
:1008D0008D000313A601271865210230B800FF2000
:1008E000F520FF20762CEE22BA33000004300317E7
:1008F0008F0073308D000313A601DB208A210008CE
:1009000084038000E9200008840AB9008C2C53106D
:100910006538E4322B1D0000043003178F00873048
:100920008D000313A601DB2027185F218A21000810
:1009300084038000E920592480160008840ABA0044
:1009400083235C2BA82CE330F735F23020320000F3
:10095000043003178F00A3308D000313A60127185E
:1009600065210230B800FF20F520FF20BA2CEE22CE
:10097000BA330000043003178F00B7308D00031323
:10098000A601DB208A21000884038000E9200008FA
:10099000840AB900D02C53106538E4322D1D0000B4
:1009A000043003178F00CB308D000313A601DB202A
:1009B00027185F218A21000884038000E920592438
:1009C0000008840ABA0083235C2BEF2CEE376933CE
:1009D000F5336139693AEE377310F43200100430A0
:1009E00003178F00E6308D000313A6012718652139
:1009F0008A2127185F218A2183230008840A0006A0
:100A000080060006840380004220C52A102DEE37A0
:100A10006933F5336139693AEE376710F432001003
:100A2000053003178F0007308D000313A601271828
:100A300065218A2183230008840A192095296C23C3
:100A4000FF202B2DED24E5366932F430A0326529E4
:100A5000E539213A0000053003178F0022308D0060
:100A60000313A601DB203D2DF332F4326910ED367D
:100A7000E432E134653A79360000053003178F001F
:100A800034308D000313A60127186521832B502DC8
:100A9000653B6239F337A032EF3665326F100037AD
:100AA000053003178F0048308D000313A601652120
:100AB0002F21832B4321832B682DEC322038EE37F6
:100AC0006310EE376933F5336139693AEE37000068
:100AD000053003178F005D308D000313A601271822
:100AE00065218323232A7B2D4322A0214928A0218D
:100AF0002E18B3190019053003178F0074308D00BC
:100B00000313A60108008C2DE3306F3A7939641085
:100B1000E632F53074368039053003178F008430A3
:100B20008D000313A6012718652183239D2AA9217F
:100B3000A22DF334E23065364410C3216F10F43A2D
:100B40007538003A053003178F0099308D00031374
:100B5000A60127186521832BB62D61376C31A03291
:100B60004322A021F537703AF43A0000053003170C
:100B70008F00AD308D000313A60127186521832354
:100B8000A5298323612173256F21E22D20336F3640
:100B9000EF3173106538E43220102010201020103F
:100BA00020102010EF26653B6C10E337A037EE34A1
:100BB0006610F237E13B64396410F234E332693A8B
:100BC000EE370000053003178F00C6308D00031389
:100BD000A6016F21072E20316F36EF317310653873
:100BE000E432201020102010201020102010EF26BA
:100BF000653B6C10E337A037EE346210E330F73515
:100C0000F230203269326539F431EF340037053083
:100C100003178F00EB308D000313A6016F21242EE4
:100C2000A0396F36EF312010201020102010201036
:100C30002010201020102010ED22F232E53363370F
:100C4000A03CF439F0370000063003178F00103055
:100C50008D000313A6016F21412E20392010201092
:100C60002010201020102010201020102010201004
:100C70002010ED22F232E5336337A03C6539E539C7
:100C8000003A063003178F002D308D000313A601A4
:100C90006F21642EA0316E372010201020102010FC
:100CA000201020102010201020102010E523203AC2
:100CB000EF316637E734F23AF430EF3420376138F9
:100CC0006139E536653A0039063003178F004A303E
:100CD0008D000313A6016F21872EA0216E37761099
:100CE000203B201020102010201020102010201059
:100CF0002010E529203AEF316637E734F23AF43034
:100D0000EF34203761386139E536653A003906300D
:100D100003178F006D308D000313A6016F21A72EDE
:100D2000203B201020102010201020102010201018
:100D30002010201020102010752A6E397610F23203
:100D40006F31E5396D10E437A032EE370000063020
:100D500003178F0090308D000313A6016F21C72E5B
:100D6000202B2010201020102010201020102010E8
:100D70002010201020102010752A6E397610F232C3
:100D80006F31E5396D10E437A032E63700330630B5
:100D900003178F00B0308D000313A6016F21E92ED9
:100DA000A03065366737683A7810203CF93C7A10F5
:100DB000203D2E1720172010E52964376110793760
:100DC0007610EC30E4344410C3217010E330E53584
:100DD000003A063003178F00D0308D000313A601B0
:100DE0006F210F2F203420102010201020102010F1
:100DF0002010201020102010201020106926F43917
:100E00006F102033EF316637E734F23AF430EF34C5
:100E1000203761386139E536653A733900000630AC
:100E200003178F00F2308D000313A6016F212D2FC1
:100E3000202320102010201020102010201020101F
:100E400020102010201020106123F431F237A03C34
:100E500065326133EC3A733A0000073003178F00B4
:100E600018308D000313A6016F214C2F2032201063
:100E700020102010201020102010201020102010F2
:100E8000201020106922E1396C31A0324322A021C8
:100E9000F537703AF43A0000073003178F00363008
:100EA0008D000313A6016F216A2FA02220102010AD
:100EB00020102010201020102010201020102010B2
:100EC0002010EE22E23065364410C3216F10F43A50
:100ED0007538003A073003178F0055308D00031323
:100EE000A6016F21902F2028201020102010201004
:100EF0002010201020102010201020102010722808
:100F0000E7376139A0366539E933F439F232281010
:100F100069326539F4316110E331F332A9390000E7
:100F2000073003178F0073308D000313A6016F2164
:100F3000B52F203820102010201020102010201055
:100F4000201020102010201020107228E73761395F
:100F5000A0366539E933F439F23228106138E533C7
:100F60002032E330E531F3398014073003178F0066
:100F700099308D000313A6016F21D42FA01F2010DC
:100F800020102010201020102010201020102010E1
:100F900020102010652470362810683AF3346D1044
:100FA000F332E139E5338014073003178F00BE3088
:100FB0008D000313A6016F21F22F202C201020108A
:100FC00020102010201020102010201020102010A1
:100FD00020106529E539203A4322A021EE32EF3175
:100FE00065320039073003178F00DD308D000313A1
:100FF000A6016529000000000000000000000000BC
:1010000000000000000000000000000000000000E0
:101010000000000000000000000000008A15271CEE
:101020002E288A0161218A152128BF1FA01FEE2AC0
:10103000EE35F7372D37EF31ED36EE303A326010BE
:101040000000083003178F0015308D000313A60130
:101050008A01652100085721273057293F308A012E
:1010600057290008663A031D37288A015F2C0008BB
:10107000623A031D3D288A01A22C0008733A031D21
:1010800043288A01162C0008723A031D49288A0158
:101090001F2D0008633A031D4F288A01062D000802
:1010A000433A031D55288A01E52C0008763A031DB2
:1010B0005B288A01472D0008563A031D61288A01E2
:1010C0005A2D0008613A031D67288A01AC2B0008DD
:1010D000683A031D6D288A015C2D0008463A031DFD
:1010E00073288A01832D0008643A031D79288A0138
:1010F000972D0008453A031D7F288A01AC2D000872
:10110000503A031D85288A01BF2B0008703A031D41
:101110008B288A01ED2B00083F3A031D91288A0194
:10112000C12D0008583A031D982805108A0100288F
:101130000008CE3E031C08008A01FA2F000803199C
:1011400005140008AE00840AAD0008002E18C0285F
:10115000B4282A152015482AD222C1262026CC20C0
:10116000D222202A2A150015083003178F00A93033
:101170008D000313A601271CBF288A016F210510CB
:10118000061EDE280010D3282A152015CE22202284
:10119000C627541045244D29CC20411045265429FA
:1011A0002A102A150000083003178F00C4308D0064
:1011B0000313A601271CDE288A016F219E28AE1882
:1011C000FC28F0282A152015C829D227202AC92151
:1011D0004329C92A202ACC20D222202A2A150015E8
:1011E000083003178F00E2308D000313A601271C7F
:1011F000FB288A016F210510861A1C2980101229EC
:101200002A152015CE222022C62753104F245429F8
:101210004310D224D521D4244110452654292A1024
:101220002A150000093003178F008D010313A60152
:10123000271C1C298A016F219E282D088403800009
:101240000139031DA6288018DF289E28FF30B3002F
:10125000FF30B4001030B500063083169F008312B3
:101260008501C0308316850083128601F83083160D
:101270008600831287019530831687001430990009
:1012800024309800831290309800833083168100B8
:1012900083128B16F0308100AD01AE018B178A01ED
:1012A00009298A01FF207325DB20F52073258A1583
:1012B000271C5C298A016F290800271C7C298A01C8
:1012C00061218A157329EF21ED36EE302032741436
:1012D000F03CA0323F30A0136F33203965347036B4
:1012E000A014201F0000093003178F0063308D0009
:1012F0000313A6018A0165293E308A015729A718E0
:1013000087168A158C1A89292D08031D1D218A1517
:10131000812908008A155D218A157F218A0179219A
:101320008A153120840A8A158A2950308400A50143
:10133000262105148A01DC22033019200008840AC2
:1013400000388A150319A8298A012F218A15AA298C
:101350008A0143218A01C522A5216C238A155121C6
:101360008A158A290000000000000000000000002B
:04400E00623FFF3FCF
:10420000FFFFFFFFFFFFFFFFFFFFFFFFFFFFFFFFBE
:00000001FF
