:100000008A01642F000000000000000000000000D2
:1000100000000000000000000000000000000000E0
:1000200000000000000000000000000000000000D0
:1000300000000000000000000000000000000000C0
:1000400000000000000000000000000000000000B0
:100C00008A01602F000008000008840AA000000884
:100C1000840AA1000408A2002008840021088000A2
:100C20002208840008000408A000000884000008CE
:100C3000A1002008840021088000080003178D000F
:100C400083168C130C1483120C0803138403800086
:100C50000800831603178C130C1555308D00AA302D
:100C60008D008C140C1103138312080083160317D4
:100C70008C18382E0313831208000008840A031707
:100C80008D0003130008840A03178C000313292620
:100C9000362E831603178C170C1400000000031364
:100CA00083120800831603178C170C1555308D001E
:100CB000AA308D008C14000000000C110313831265
:100CC00008002308840380000426A30A08002530B6
:100CD000A300080067262608C5001030C600450896
:100CE0001E266126C50AC60B6F2E20308506080019
:100CF0002730A3002608C5000830C6002308840357
:100D0000800013264508840380003D26A30AC50AF7
:100D1000C60B7E2E08006726260803178F000313D4
:100D2000270803178D0003131030C6004926031748
:100D30000E08031384038000612603170C080313B5
:100D400084038000612603178D0A0313031DAB2E55
:100D500003178F0A0313C60B962E080026080317E5
:100D60008F000313270803178D00031328080317A8
:100D70008E000313290803178C000313522E5530DD
:100D8000A500AA30A6000800930014160800130856
:100D900084038000141308002408013A031DDC2E8C
:100DA0002508063A0319BF2E2508503A03190028D2
:100DB0002508523A0319022E2408023A031DE42E94
:100DC0002508103A03196A2E2408033A031DEC2E55
:100DD0002508203A03198B2E2408053A031DF42E0A
:100DE0002508213A0319AE2E24080A3A031DFC2EC9
:100DF0002508113A0319782E0800C7260301840A32
:100E0000A400672EC7262308840380000426A30AB3
:100E1000A40ACC2E23088403800013260008840A29
:100E2000C426A30A080067260A2F08008C1183161F
:100E3000140883122D3984038000093A031D222FE0
:100E4000840AFD2E0008293A031D282F840A022F48
:100E500000080C3A031D2E2F840A132F00082C3A89
:100E6000031D342F840A0A2F28300006840A003814
:100E70000319152F0800831681130617831200002B
:100E8000000000000000060840398403800083163B
:100E900081178312080083168512831285163B275B
:100EA0000008840A00380319572F8512022E3630A5
:100EB00094000E3083169300940191018312080070
:100EC00064008C191627602F573084004B27602F41
:04400E00F7FFFF3F7A
:00000001FF
