:1000000000000000000000000408A00000088400B8
:100010000008A100200884002108800008000008D2
:10002000840AA0000008840AA1000408A200200895
:10003000840021088000220884000800A000000835
:10004000840AA4000008840AA30020088403800016
:10005000000803193728230884038000042024089B
:10006000840380000F20A30AA40A80032828840A9E
:100070000800000000000000000000000000000078
:04400E00FF3FFF3F32
:00000001FF
