:1000000000000000000000008312031308008316A4
:100010000313080004208C1D0B288C1108000420F9
:100020000008840A93000A28072083161408831204
:100030000439031D15288316911583120A2013080D
:100040008403800008000720831691121116831282
:100050000A28072083169116111683120A280720F2
:100060008316111483120A28072083169114831211
:100070000A2807208316111583120A2822088403F0
:1000800080000F2822080138840380000F280730E1
:100090008005800DA030800400100008840AA200B2
:1000A00083168715071683120420941514119410D3
:1000B00014108316141383120720831691019417CA
:1000C0000B30930083129416080034203E200F203A
:1000D0000F2084038001080065200008031973289D
:1000E0000008840380000008840A0038031D08000B
:1000F0003420422084038001080014202328142087
:10010000840A2920392865280F2839286C200008FE
:1001100003198D280008840380000008840A003831
:10012000031D08007D207F208403800108008320B8
:10013000000803199E280008840380000008840A30
:100140000038031D080084208520840380010800F6
:04400E00FF3FFF3F32
:00000001FF
