:100000000000000000000000831603178C170C147A
:1000100000000000031383120800831603178C17D7
:100020000C1555308D00AA308D008C140000000096
:100030000C11031383120800221C2628A2010317A7
:100040000C0803137F39840380000800A20A0420EF
:1000500003170E080313840380000310800D031799
:100060000C0803138039031D001403178D0A0313B2
:10007000031D3D2803178F0A03130800000000002A
:04400E00FF3FFF3F32
:00000001FF
