:100000008A015D2900000008840AA0000008840A13
:10001000A1000408A2002008840021088000220812
:100020008400080003178D0083168C130C148312B0
:100030000C080313840380000800831603178C1335
:100040000C1555308D00AA308D008C140C11031343
:1000500083120800831603178C182C2803138312AD
:1000600008000008840A03178D0003130008840A9F
:1000700003178C0003131D202A28831603178C17DF
:100080000C140000000003138312080083160317EA
:100090008C170C1555308D00AA308D008C14000083
:1000A00000000C1103138312080081010B110800DA
:1000B00081070B1D59280B110800D4305828A53092
:1000C0005828483058289E3058280008840A0317BA
:1000D0008D00031308000008840A03178D00031322
:1000E0003D2003170C080313840380000800000858
:1000F000840A03178D0003130008840A03178C0079
:100100008E0103134628840380001220000A840A0B
:10011000000680060006840380003128053083280D
:100120000630832807308328083083280930832845
:100130002308840380000A308403800031202408CF
:10014000840380000B3084038000312886178316D7
:1001500086138312080083168617831208008613FD
:100160005F2886175F280008C806800D0318AF288F
:10017000B1280008840380005520A620AF20C801C4
:100180000830C900B320C90BC228840A4808840378
:100190008000B320840AAB205F20861BD2288E20EB
:1001A0006120B928840A5F2884038000B928CA0026
:1001B00000081220B920800ACA0BD828840A080037
:1001C000861BE02855205D20861FE8289020E02827
:1001D000080092205D20A62086135F20AB28E02037
:1001E000C801840380010830C9000310800D5F201E
:1001F000861F800A0008C806C90BF5285F20861FE5
:10020000C8095D20481C0729840AE920EF289620A8
:100210000008840A080094208403800109308403C4
:1002200080003120EF20A300EF20A400EF20A500E4
:10023000EF20A600EF20A70098282830CC00270840
:10024000CB00EF20840380004C088403800003204F
:10025000CC0ACB0B21290800D4200301D4289030EC
:100260002C296E302C296D302C292408D4283521D6
:10027000270884038000AA30D4200003840A0038B1
:10028000031D3B29840A2F292408B73A03192F2973
:100290002408B83A03193729332961202308CA3AB8
:1002A0000319442931296320840380010C30D728A5
:1002B0000830831681008312AB285D3084005821FA
:1002C00053210B214D216129000000000000000096
:04400E002139FF3F16
:104200003F0077001800250020000000000000009B
:104210000000000000000000FFFFFFFFFFFFFFFFA6
:00000001FF
