:100000008A015E29000000000008840AA0000008A0
:10001000840AA1000408A2002008840021088000AE
:1000200022088400080003178D0083168C130C141B
:1000300083120C080313840380000800831603173F
:100040008C130C1555308D00AA308D008C140C11BA
:10005000031383120800831603178C182D2803132B
:10006000831208000008840A03178D000313000898
:10007000840A03178C0003131E202B2883160317F2
:100080008C170C1400000000031383120800831661
:1000900003178C170C1555308D00AA308D008C1469
:1000A000000000000C1103138312080081010B11E2
:1000B000080081070B1D5A280B110800D43059285D
:1000C000A5305928483059289E3059280008840AFC
:1000D00003178D00031308000008840A03178D001E
:1000E00003133E2003170C08031384038000080049
:1000F0000008840A03178D0003130008840A0317FD
:100100008C008E0103134728840380001320000A0B
:10011000840A000680060006840380003228053029
:100120008428063084280730842808308428093041
:1001300084282308840380000A308403800032204E
:100140002408840380000B30840380003228861743
:1001500083168613831208008316861783120800FD
:1001600086136028861760280008C806800D0318CB
:10017000B028B2280008840380005620A720B020B1
:10018000C8010830C900B420C90BC328840A480834
:1001900084038000B420840AAC206020861BD3280E
:1001A0008F206220BA28840A602884038000BA283D
:1001B000CA0000081320BA20800ACA0BD928840A72
:1001C0000800861BE12856205E20861FE928912022
:1001D000E128080093205E20A72086136020AC2829
:1001E000E120C801840380010830C9000310800D9C
:1001F0006020861F800A0008C806C90BF628602008
:10020000861FC8095E20481C0829840AEA20F028B5
:1002100097200008840A0800952084038001093093
:10022000840380003220F020A300F020A400F020FE
:10023000A500F020A600F020A70099282830CC00C7
:100240002708CB00F020840380004C088403800042
:100250000420CC0ACB0B22290800D5200301D52885
:1002600090302D296E302D296D302D292408D52868
:100270003621270884038000AA30D5200003840A91
:100280000038031D3C29840A30292408B73A031991
:1002900030292408B83A0319382934296220230860
:1002A000CA3A0319452932296420840380010C309D
:1002B000D8280830831681008312AC285D30840072
:1002C000592154210C214E21622900000000000018
:04400E002139FF3F16
:104200003F0077001800250020000000000000009B
:104210000000000000000000FFFFFFFFFFFFFFFFA6
:00000001FF
