:100000008A018E2C00000000FF00030E8301A20075
:100010000A08A3008A01452C0000A50A250B080048
:100020000B08A4008B130800A50B0800A41B8B175A
:1000300008000D200008840AA0000008840AA1001E
:100040000408A600200884002108800026088400F7
:1000500014280D200408A000000884000008A10056
:10006000200884002108800014280D20A00000082A
:10007000840AA8000008840AA700200884038000DE
:10008000000803194F282708840380002920280826
:10009000840380001920A70AA80A80034028840A44
:1000A000142803178D0083168C130C1483120C086C
:1000B0000313840380000800831603178C130C15A8
:1000C000031383120D205530831603178D00AA30B9
:1000D0008D008C14031383121420831603170C1144
:1000E000031383120800831603178C187528031353
:1000F000831208000008840A03178D000313000808
:10010000840A03178C0003135C207328CD01851625
:100110000800CD01851208000138CD000130CC0067
:10012000080003308C2801308C288316A001A1011F
:10013000A2018312CE01CF01080081000B110B1D1B
:100140009F280800A00003019D20A00BA328080001
:100150008E309D280301A2286430D00008000D20B5
:100160000B1783168C150C10831263008C1DB52899
:100170000B1383168C110C1483121428851083160C
:1001800085108312080083168514831208000A3034
:10019000A2280430A228FF309D280530A2280A306A
:1001A000A2280230A228BE20C720C320C928C3200D
:1001B000CD28CD20C328800C0318D728D928083093
:1001C000D100BE20CB20DB20CF20D10BE128840A38
:1001D000080081010B1108000030A000E920851CF7
:1001E00008000B1DEF28A00BEE2808000030A0002F
:1001F000E920851808000B1DF928A00BF828080035
:10020000EC20D1200310800C85188017F628840379
:1002100080010830D1000021D10B0B290800D32028
:100220008017DF20DF28D320DF200729D3002A30E2
:10023000D4002030D2005308512054088403800099
:100240001920D30AD40AD20B1B2908000130162921
:1002500021301629603016292C08840380002B08D1
:10026000603E840380007A28D504051283160512A7
:100270000516831208001F151F193C291E08AA0025
:1002800083161E088312AB000800690884038000EF
:100290002920E90A08006908840380001920E90A76
:1002A0000800A3309D28D2309D288316061483129F
:1002B00060308403800000080319732964308403CC
:1002C000800000080319702981010B1106186C29A0
:1002D000840AFF30800053290B1D662980036129A1
:1002E000840A80035B29800108000130EB060800C6
:1002F0000310800D06180800001475290310800CE7
:10030000061C0800801775296A08031D78297E29B4
:100310008316A10A83125121061083160610831238
:100320005121512955210008840A0038031D9B29B9
:10033000840380010800EB01840380010830E80099
:1003400051218421E80BA0295121061C75216B1C29
:10035000AC29840A882192295121CF0AFF308403D5
:100360008000080092210008840A0038031DBB2980
:100370008403800108000008603A031DC129840A33
:10038000B229FF3084038000080000102E08800688
:10039000030180040319FF30800008000008840373
:1003A0008000C5210008840A00380319DA29FF30CB
:1003B000800008008009C529800D031CE129061072
:1003C000752906140800800C031CE829061408008F
:1003D000061075296A08031DDC29E329EB010008D2
:1003E0008403800006108316061083125121083002
:1003F000E800EA215121E80BF929840A6B1C022A42
:100400000610032A06145121831606148312512163
:100410000618102A8316A20A831251215121EE29AF
:10042000840ACE0A08004521EE291322800303190D
:100430001B2A5121152A840A080000080319222AC0
:100440001522232A840A9229B2210008840A00383E
:10045000031D2C2A80010800000884038000CE219F
:100460000008840A003803193C2A0008840A800026
:10047000FF30840380000800C5210008840A00388A
:10048000031D1D2A0008031D472A840A92291322EE
:10049000800B5121242A0008840AEC006C080319FF
:1004A000532A9221552A840380010008840A0038C7
:1004B00003195D2A4B21EC034E2A08002D30E90078
:1004C000053084038000152A6908D53EAA008628D5
:1004D00064228628642293280008840A00380319BD
:1004E0007A2A4B2192210008840A003803197A2ABB
:1004F0004B21682A6A2A91205E222B08FB3E840346
:10050000800000380319872A512124226C2A840A8A
:100510002B30E900B2210008840A0038031D932A19
:100520009320AA010800000884038000CE2100085F
:10053000840A00380319A02AFF30840380006C2A43
:10054000840A2C08023E840380004B22682A060895
:10055000203984038000670880060800831606148B
:10056000831287140710E701D60108002030E80045
:10057000A7220008840A003803190800E80BB82AEB
:1005800091202030E700EA018710A820071492216B
:100590000008840A0038031DCF2A0710932800089A
:1005A000033A031DD62A3F308000EA0A0008840A75
:1005B000D7005830E9000F30840380004B226908CF
:1005C000A93ED6000230342186288920AE22AA20F6
:1005D000023034296708031DE52AB62A94129416BE
:1005E0000800930014160800130884038000141FE9
:1005F000080014138316A00A831208002C08840331
:1006000080002B08840380000F292B0884038000BE
:1006100013210008840AAA00080083162008831208
:10062000AA00831621088312AB00831622088312C6
:10063000AC004E08AD004F08AE0008002B08831632
:10064000920083122C0895002D0884038000800CF2
:10065000800C3F3080051708CF390004840A9700CA
:100660002E08840380001208FC390004840A9200DA
:100670000800F83083168700831212150800121143
:10068000FC3083168700831208005508AA00D501A4
:1006900008002B0884038000840380017A2801303D
:1006A000AA000830AB0008005630840380002A30CE
:1006B000840380005608013E35282908013A031DAD
:1006C000BF2B2A08013A03194F2B2A08043A031DAD
:1006D0006C2B0408AA0008002A08063A031D722B96
:1006E0008B13002E2A08073A031D7B2B0512831655
:1006F0000512831208002A08083A031986282A08D6
:10070000093A031989282A080A3A031991282A085C
:100710000B3A031993282A08203A03190D2B2A08AB
:10072000213A031995282A08223A031926292A086A
:10073000233A031928292A082A3A03192A292A08B8
:10074000313A0319392B2A08323A03193F2B2A0868
:10075000403A0319452B2A08503A031900282A0861
:10076000603A0319542B2A08613A0319E52A2A082A
:10077000703A03193B292A08713A0319AF2829084E
:10078000023A031DD72B2A08023A031DCF2B2B0850
:100790008403800029200008840AAA0008002A088F
:1007A000113A0319052B2A08513A0319492B290834
:1007B000033A031DE32B2A08103A0319FE2A2A08DC
:1007C0002B3A03192C212908053A031DEB2B2A0883
:1007D000303A03191E2B2908FE3E031C08002A0884
:1007E000623A031DFE2B2908840380002B08800237
:1007F00003300006840A003803197B2A08002A30D7
:10080000CB0008008030ED00F4220301840AA90027
:10081000FF2B4030ED00F4224B08840380001920A8
:10082000CB0AA90A5D2B4B0884038000292000080D
:10083000840AF122CB0A0800FF23132C08008C1134
:100840008316140883122D3984038000093A031D8E
:100850002B2C840A022C0008293A031D312C840A0F
:10086000092C00080C3A031D372C840A1C2C0008A4
:100870002C3A031D3D2C840A132C28300006840AD0
:10088000003803191E2C043034290C104D1C4F2C39
:10089000CC03031D4F2C203085064D08CC00ED0302
:1008A0000319EE22D0030319002823088A00220E20
:1008B0008300FF0E7F0E09000230831681008F3007
:1008C0009F008312C1309F008920831685128312F6
:1008D0000130D5001708F0390C38970036309400F5
:1008E000030151200310000D840A83169300940124
:1008F00091018312ED01F93083168600FC308700E8
:10090000831286100611AE229520AC203130900063
:1009100083160C1483120B178B1708007E3084008B
:10092000A5015C2401303421AC208C191F24A7229E
:100930000008840A0038031DEA22942C00000000FD
:04400E00F7FFFF3F7A
:10420000070053005000490046002D0050004900AF
:104210004300200030002E00330033003200200025
:10422000280050006900630046006F0072007400AF
:104230006800200030002E003200370029002000E6
:10424000200043006F007000790072006900670071
:10425000680074002000280063002900200032005C
:10426000300030003200200045004E005300540062
:10427000200020002000200020002000200020003E
:104280002000FFFFFFFFFFFFFFFFFFFFFFFFFFFF1C
:00000001FF
