:100000008A018A2C00000000FF00030E8301A20079
:100010000A08A3008A01412C0000A4018B1B2414B0
:100020008B13080024188B1708000D200008840A81
:10003000A0000008840AA1000408A500200884008C
:10004000210880002508840012280D200408A00043
:10005000000884000008A100200884002108800016
:1000600012280D20A0000008840AA7000008840AB6
:10007000A600200884038000000803194B282608E6
:100080008403800025202708840380001520A60A09
:10009000A70A80033C28840A122803178D008316C0
:1000A0008C130C1483120C080313840380000800C3
:1000B000831603178C130C15031383120D20553070
:1000C000831603178D00AA308D008C14031383123E
:1000D0001220831603170C110313831208008316D2
:1000E00003178C1871280313831208000008840A70
:1000F00003178D0003130008840A03178C000313F1
:1001000058206F28CC0185160800CC018512080004
:100110000138CC000130CB000800033088280130C2
:1001200088288316A001A101A2018312CD01CE016E
:10013000080081000B110B1D9B280800A000030183
:100140009920A00B9F2808008E30992803019E2833
:100150006430CF0008000D200B1783168C150C108F
:10016000831263008C1DB1280B1383168C110C14A1
:1001700083121228851083168510831208008316B7
:100180008514831208000A309E2804309E28FF3010
:10019000992805309E280A309E2802309E28BA20D1
:1001A000C320BF20C528BF20C928C920BF28800C74
:1001B0000318D328D5280830D000BA20C720D7206C
:1001C000CB20D00BDD28840A080081010B11080028
:1001D0000030A000E520851C08000B1DEB28A00BBB
:1001E000EA2808000030A000E520851808000B1D53
:1001F000F528A00BF4280800E820CD200310800C7F
:1002000085188017F228840380010830D000FC2074
:10021000D00B07290800CF208017DB20DB28CF2058
:10022000DB200329D2002930D3002030D10052082E
:100230004D205308840380001520D20AD30AD10B25
:1002400017290800013012292130122960301229A3
:100250002B08840380002A08603E840380007628EF
:10026000D4040512831605120516831208001F1503
:100270001F1938291E08A90083161E088312AA0018
:1002800008006808840380002520E80A0800680840
:10029000840380001520E80A0800A3309928D23092
:1002A00099288316061483126030840380000008A6
:1002B00003196F29643084038000000803196C2936
:1002C00081010B1106186829840AFF3080004F292C
:1002D0000B1D622980035D29840A80035729800150
:1002E00008000130EA0608000310800D0618080017
:1002F000001471290310800C061C08008017712956
:100300006908031D74297A298316A10A83124D21D5
:1003100006108316061083124D214D295121000825
:10032000840A0038031D9729840380010800EA012C
:10033000840380010830E7004D218021E70B9C29D0
:100340004D21061C71216A1CA829840A84218E294A
:100350004D21CE0AFF308403800008008E21000862
:10036000840A0038031DB7298403800108000008AF
:10037000603A031DBD29840AAE29FF308403800042
:10038000080000102D088006030180040319FF30C7
:1003900080000800000884038000C1210008840A4E
:1003A00000380319D629FF30800008008009C129D0
:1003B000800D031CDD290610712906140800800C2D
:1003C000031CE42906140800061071296908031D9E
:1003D000D829DF29EA01000884038000061083166B
:1003E000061083124D210830E700E6214D21E70B6E
:1003F000F529840A6A1CFE290610FF2906144D21DE
:100400008316061483124D2106180C2A8316A20A9D
:1004100083124D214D21EA29840ACD0A0800412189
:10042000EA290F2280030319172A4D21112A840A71
:100430000800000803191E2A11221F2A840A8E2987
:10044000AE210008840A0038031D282A8001080014
:10045000000884038000CA210008840A00380319B8
:10046000382A0008840A8000FF30840380000800D6
:10047000C1210008840A0038031D192A0008031D41
:10048000432A840A8E290F22800B4D21202A00083E
:10049000840AEB006B0803194F2A8E21512A84032A
:1004A00080010008840A00380319592A4721EB0308
:1004B0004A2A08002C30E800053084038000112A05
:1004C0006808D63EA90082286022822860228F28F0
:1004D0000008840A00380319762A47218E21000873
:1004E000840A00380319762A4721642A662A8D2057
:1004F0005A222A08FB3E8403800000380319832A0D
:100500004D212022682A840A2A30E800AE21000802
:10051000840A0038031D8F2A8F20A90108000008D3
:1005200084038000CA210008840A003803199C2A29
:10053000FF3084038000682A840A2B08023E84036B
:1005400080004722642A0608203984038000660858
:100550008006080083160614831287140710E6012C
:10056000D50108002030E700A3220008840A0038E3
:1005700003190800E70BB42A8D202030E600E901BA
:100580008710A42007148E210008840A0038031D58
:10059000CB2A07108F280008033A031DD22A3F30C8
:1005A0008000E90A0008840AD6005730E8000F30BE
:1005B0008403800047226808AA3ED500023030211B
:1005C00082288520AA22A620023030296608031D31
:1005D000E12AB22A94129416080093001416080017
:1005E000130884038000141F080014138316A00A44
:1005F000831208002B08840380002A0884038000EB
:100600000B292A08840380000F210008840AA9000E
:100610000800831620088312A9008316210883127C
:10062000AA00831622088312AB004D08AC004E08C6
:10063000AD0008002A088316920083122B0895004B
:100640002C0884038000800C800C3F308005170844
:10065000CF390004840A97002D0884038000120813
:10066000FC390004840A92000800F83083168700E1
:100670008312121508001211FC30831687008312B2
:1006800008005408A900D40108002A088403800047
:100690008403800176280130A9000830AA000800F0
:1006A0005530840380002930840380005508013EC2
:1006B00031282808013A031DBB2B2908013A0319E8
:1006C0004B2B2908043A031D682B0408A9000800D5
:1006D0002908063A031D6E2B8B13002E2908073AB2
:1006E000031D772B051283160512831208002908B3
:1006F000083A031982282908093A03198528290884
:100700000A3A03198D2829080B3A03198F2829085A
:10071000203A0319092B2908213A0319912829089D
:10072000223A031922292908233A031924292908DE
:100730002A3A031926292908313A0319352B2908A1
:10074000323A03193B2B2908403A0319412B290857
:10075000503A031900282908603A0319502B290838
:10076000613A0319E12A2908703A0319372929083F
:10077000713A0319AB282808023A031DD32B290824
:10078000023A031DCB2B2A08840380002520000891
:10079000840AA90008002908113A0319012B290825
:1007A000513A0319452B2808033A031DDF2B29086A
:1007B000103A0319FA2A29082B3A03192821280884
:1007C000053A031DE72B2908303A03191A2B28088C
:1007D000FE3E031C08002908623A031DFA2B280874
:1007E000840380002A08800203300006840A00384F
:1007F0000319772A08002930CA0008008030EC006D
:10080000F0220301840AA800FB2B4030EC00F02208
:100810004A08840380001520CA0AA80A592B4A08EE
:100820008403800025200008840AED22CA0A0800FB
:10083000FB230F2C08008C118316140883122D390A
:1008400084038000093A031D272C840AFE2B00082C
:10085000293A031D2D2C840A052C00080C3A031D8F
:10086000332C840A182C00082C3A031D392C840AD6
:100870000F2C28300006840A003803191A2C043083
:1008800030290C104C1C4B2CCB03031D4B2C20305F
:1008900085064C08CB00EC030319EA22CF030319A9
:1008A000002823088A00220E8300FF0E7F0E090015
:1008B0000230831681008F309F008312C1309F0069
:1008C00085208316851283120130D4001708F03971
:1008D0000C3897003630940003014D200310000DB2
:1008E000840A83169300940191018312EC01F9307C
:1008F00083168600FC308700831286100611AA2218
:100900009120A8203130900083160C1483120B170D
:100910008B1708007D308400582401303021A82036
:100920008C191B24A3220008840A0038031DE62228
:100930008F2C0000000000000000000000000000FC
:04400E00F7FFFF3F7A
:10420000070053005000490046002D0050004900AF
:104210004300200030002E00330033003200200025
:10422000280050006900630046006F0072007400AF
:104230006800200030002E003200370029002000E6
:10424000200043006F007000790072006900670071
:10425000680074002000280063002900200032005C
:10426000300030003200200045004E005300540062
:10427000200020002000200020002000200020003E
:104280002000FFFFFFFFFFFFFFFFFFFFFFFFFFFF1C
:00000001FF
