:100000008A0116280000000002308606A40109308B
:100010003628042804308606053084038000AF01AA
:1000200012302D28800B0F28840A0A2848308400BB
:100030003830AD000A30AE00AF012D30A2000430E0
:10004000A300A401F93083168600831264002D08F2
:1000500084002F088A002E088200AE000408AD003C
:100060002208840024088A0023088200A3000408D0
:10007000A200262800000000000000000000000090
:04400E00E23FFF3F4F
:00000001FF
