:100000008A011A280000000002308606A501220895
:100010008A000B303B280428043086060530840310
:100020008000B00122088A0016303228800B112887
:10003000840A0C28493084003930AE000C30AF00FF
:10004000B0012E30A3000430A400A501F9308316BE
:1000500086008312A20164002E08840030088A0002
:100060002F088200AF000408AE0023088400250892
:100070008A0024088200A4000408A3002B280000A2
:04400E00E23FFF3F4F
:00000001FF
