:100000008A011528000002308606A4010830352830
:10001000032804308606053084038000AF011130C8
:100020002C28800B0E28840A092848308400383098
:10003000AD000930AE00AF012D30A2000330A300A7
:10004000A401F93083168600831264002D08840011
:100050002F088A002E088200AE000408AD00220896
:10006000840024088A0023088200A3000408A20058
:100070002528000000000000000000000000000033
:04400E00E23FFF3F4F
:00000001FF
